{
  "_format": "hh-sol-artifact-1",
  "contractName": "EpicGame",
  "sourceName": "contracts/EpicGame.sol",
  "abi": [
    {
      "inputs": [
        {
          "internalType": "string[]",
          "name": "charNames",
          "type": "string[]"
        },
        {
          "internalType": "string[]",
          "name": "charImageURIs",
          "type": "string[]"
        },
        {
          "internalType": "uint256[]",
          "name": "charHp",
          "type": "uint256[]"
        },
        {
          "internalType": "uint256[]",
          "name": "maxHp",
          "type": "uint256[]"
        },
        {
          "internalType": "uint256[]",
          "name": "charAttackDamage",
          "type": "uint256[]"
        },
        {
          "internalType": "uint256[]",
          "name": "charDefence",
          "type": "uint256[]"
        },
        {
          "internalType": "string",
          "name": "bossName",
          "type": "string"
        },
        {
          "internalType": "string",
          "name": "bossImageURI",
          "type": "string"
        },
        {
          "internalType": "uint256",
          "name": "bossHp",
          "type": "uint256"
        },
        {
          "internalType": "uint256",
          "name": "bossAttackDamage",
          "type": "uint256"
        }
      ],
      "stateMutability": "nonpayable",
      "type": "constructor"
    },
    {
      "anonymous": false,
      "inputs": [
        {
          "indexed": true,
          "internalType": "address",
          "name": "owner",
          "type": "address"
        },
        {
          "indexed": true,
          "internalType": "address",
          "name": "approved",
          "type": "address"
        },
        {
          "indexed": true,
          "internalType": "uint256",
          "name": "tokenId",
          "type": "uint256"
        }
      ],
      "name": "Approval",
      "type": "event"
    },
    {
      "anonymous": false,
      "inputs": [
        {
          "indexed": true,
          "internalType": "address",
          "name": "owner",
          "type": "address"
        },
        {
          "indexed": true,
          "internalType": "address",
          "name": "operator",
          "type": "address"
        },
        {
          "indexed": false,
          "internalType": "bool",
          "name": "approved",
          "type": "bool"
        }
      ],
      "name": "ApprovalForAll",
      "type": "event"
    },
    {
      "anonymous": false,
      "inputs": [
        {
          "indexed": true,
          "internalType": "address",
          "name": "from",
          "type": "address"
        },
        {
          "indexed": true,
          "internalType": "address",
          "name": "to",
          "type": "address"
        },
        {
          "indexed": true,
          "internalType": "uint256",
          "name": "tokenId",
          "type": "uint256"
        }
      ],
      "name": "Transfer",
      "type": "event"
    },
    {
      "inputs": [
        {
          "internalType": "address",
          "name": "to",
          "type": "address"
        },
        {
          "internalType": "uint256",
          "name": "tokenId",
          "type": "uint256"
        }
      ],
      "name": "approve",
      "outputs": [],
      "stateMutability": "nonpayable",
      "type": "function"
    },
    {
      "inputs": [],
      "name": "attackBoss",
      "outputs": [],
      "stateMutability": "nonpayable",
      "type": "function"
    },
    {
      "inputs": [
        {
          "internalType": "address",
          "name": "owner",
          "type": "address"
        }
      ],
      "name": "balanceOf",
      "outputs": [
        {
          "internalType": "uint256",
          "name": "",
          "type": "uint256"
        }
      ],
      "stateMutability": "view",
      "type": "function"
    },
    {
      "inputs": [],
      "name": "bigBoss",
      "outputs": [
        {
          "internalType": "string",
          "name": "name",
          "type": "string"
        },
        {
          "internalType": "string",
          "name": "imageURI",
          "type": "string"
        },
        {
          "internalType": "uint256",
          "name": "hp",
          "type": "uint256"
        },
        {
          "internalType": "uint256",
          "name": "maxHp",
          "type": "uint256"
        },
        {
          "internalType": "uint256",
          "name": "attackDamage",
          "type": "uint256"
        },
        {
          "internalType": "uint256",
          "name": "defence",
          "type": "uint256"
        }
      ],
      "stateMutability": "view",
      "type": "function"
    },
    {
      "inputs": [
        {
          "internalType": "uint256",
          "name": "tokenId",
          "type": "uint256"
        }
      ],
      "name": "getApproved",
      "outputs": [
        {
          "internalType": "address",
          "name": "",
          "type": "address"
        }
      ],
      "stateMutability": "view",
      "type": "function"
    },
    {
      "inputs": [
        {
          "internalType": "address",
          "name": "owner",
          "type": "address"
        },
        {
          "internalType": "address",
          "name": "operator",
          "type": "address"
        }
      ],
      "name": "isApprovedForAll",
      "outputs": [
        {
          "internalType": "bool",
          "name": "",
          "type": "bool"
        }
      ],
      "stateMutability": "view",
      "type": "function"
    },
    {
      "inputs": [
        {
          "internalType": "uint256",
          "name": "_charIndex",
          "type": "uint256"
        }
      ],
      "name": "mintCharNFT",
      "outputs": [],
      "stateMutability": "nonpayable",
      "type": "function"
    },
    {
      "inputs": [],
      "name": "name",
      "outputs": [
        {
          "internalType": "string",
          "name": "",
          "type": "string"
        }
      ],
      "stateMutability": "view",
      "type": "function"
    },
    {
      "inputs": [
        {
          "internalType": "uint256",
          "name": "",
          "type": "uint256"
        }
      ],
      "name": "nftHolderAttributes",
      "outputs": [
        {
          "internalType": "uint256",
          "name": "charIndex",
          "type": "uint256"
        },
        {
          "internalType": "string",
          "name": "name",
          "type": "string"
        },
        {
          "internalType": "string",
          "name": "imageURI",
          "type": "string"
        },
        {
          "internalType": "uint256",
          "name": "hp",
          "type": "uint256"
        },
        {
          "internalType": "uint256",
          "name": "maxHp",
          "type": "uint256"
        },
        {
          "internalType": "uint256",
          "name": "attackDamage",
          "type": "uint256"
        },
        {
          "internalType": "uint256",
          "name": "defence",
          "type": "uint256"
        }
      ],
      "stateMutability": "view",
      "type": "function"
    },
    {
      "inputs": [
        {
          "internalType": "address",
          "name": "",
          "type": "address"
        }
      ],
      "name": "nftHolders",
      "outputs": [
        {
          "internalType": "uint256",
          "name": "",
          "type": "uint256"
        }
      ],
      "stateMutability": "view",
      "type": "function"
    },
    {
      "inputs": [
        {
          "internalType": "uint256",
          "name": "tokenId",
          "type": "uint256"
        }
      ],
      "name": "ownerOf",
      "outputs": [
        {
          "internalType": "address",
          "name": "",
          "type": "address"
        }
      ],
      "stateMutability": "view",
      "type": "function"
    },
    {
      "inputs": [
        {
          "internalType": "address",
          "name": "from",
          "type": "address"
        },
        {
          "internalType": "address",
          "name": "to",
          "type": "address"
        },
        {
          "internalType": "uint256",
          "name": "tokenId",
          "type": "uint256"
        }
      ],
      "name": "safeTransferFrom",
      "outputs": [],
      "stateMutability": "nonpayable",
      "type": "function"
    },
    {
      "inputs": [
        {
          "internalType": "address",
          "name": "from",
          "type": "address"
        },
        {
          "internalType": "address",
          "name": "to",
          "type": "address"
        },
        {
          "internalType": "uint256",
          "name": "tokenId",
          "type": "uint256"
        },
        {
          "internalType": "bytes",
          "name": "_data",
          "type": "bytes"
        }
      ],
      "name": "safeTransferFrom",
      "outputs": [],
      "stateMutability": "nonpayable",
      "type": "function"
    },
    {
      "inputs": [
        {
          "internalType": "address",
          "name": "operator",
          "type": "address"
        },
        {
          "internalType": "bool",
          "name": "approved",
          "type": "bool"
        }
      ],
      "name": "setApprovalForAll",
      "outputs": [],
      "stateMutability": "nonpayable",
      "type": "function"
    },
    {
      "inputs": [
        {
          "internalType": "bytes4",
          "name": "interfaceId",
          "type": "bytes4"
        }
      ],
      "name": "supportsInterface",
      "outputs": [
        {
          "internalType": "bool",
          "name": "",
          "type": "bool"
        }
      ],
      "stateMutability": "view",
      "type": "function"
    },
    {
      "inputs": [],
      "name": "symbol",
      "outputs": [
        {
          "internalType": "string",
          "name": "",
          "type": "string"
        }
      ],
      "stateMutability": "view",
      "type": "function"
    },
    {
      "inputs": [
        {
          "internalType": "uint256",
          "name": "_tokenId",
          "type": "uint256"
        }
      ],
      "name": "tokenURI",
      "outputs": [
        {
          "internalType": "string",
          "name": "",
          "type": "string"
        }
      ],
      "stateMutability": "view",
      "type": "function"
    },
    {
      "inputs": [
        {
          "internalType": "address",
          "name": "from",
          "type": "address"
        },
        {
          "internalType": "address",
          "name": "to",
          "type": "address"
        },
        {
          "internalType": "uint256",
          "name": "tokenId",
          "type": "uint256"
        }
      ],
      "name": "transferFrom",
      "outputs": [],
      "stateMutability": "nonpayable",
      "type": "function"
    }
  ],
  "bytecode": "0x60806040523480156200001157600080fd5b50604051620051d0380380620051d0833981810160405281019062000037919062000ba0565b6040518060400160405280600981526020017f4e46544865726f657300000000000000000000000000000000000000000000008152506040518060400160405280600481526020017f4845524f000000000000000000000000000000000000000000000000000000008152508160009080519060200190620000bb92919062000908565b508060019080519060200190620000d492919062000908565b5050506040518060c0016040528085815260200184815260200183815260200161271081526020018281526020016064815250600660008201518160000190805190602001906200012792919062000908565b5060208201518160010190805190602001906200014692919062000908565b5060408201518160020155606082015181600301556080820151816004015560a08201518160050155905050620002d36040518060600160405280602c8152602001620051a4602c913960066000018054620001a29062000f80565b80601f0160208091040260200160405190810160405280929190818152602001828054620001d09062000f80565b8015620002215780601f10620001f55761010080835404028352916020019162000221565b820191906000526020600020905b8154815290600101906020018083116200020357829003601f168201915b5050505050600660020154600660010180546200023e9062000f80565b80601f01602080910402602001604051908101604052809291908181526020018280546200026c9062000f80565b8015620002bd5780601f106200029157610100808354040283529160200191620002bd565b820191906000526020600020905b8154815290600101906020018083116200029f57829003601f168201915b50505050506200077160201b620016851760201c565b60005b8a518110156200074957600d6040518060e001604052808381526020018d84815181106200032d577f4e487b7100000000000000000000000000000000000000000000000000000000600052603260045260246000fd5b602002602001015181526020018c848151811062000374577f4e487b7100000000000000000000000000000000000000000000000000000000600052603260045260246000fd5b602002602001015181526020018b8481518110620003bb577f4e487b7100000000000000000000000000000000000000000000000000000000600052603260045260246000fd5b602002602001015181526020018a848151811062000402577f4e487b7100000000000000000000000000000000000000000000000000000000600052603260045260246000fd5b6020026020010151815260200189848151811062000449577f4e487b7100000000000000000000000000000000000000000000000000000000600052603260045260246000fd5b6020026020010151815260200188848151811062000490577f4e487b7100000000000000000000000000000000000000000000000000000000600052603260045260246000fd5b60200260200101518152509080600181540180825580915050600190039060005260206000209060070201600090919091909150600082015181600001556020820151816001019080519060200190620004ec92919062000908565b5060408201518160020190805190602001906200050b92919062000908565b50606082015181600301556080820151816004015560a0820151816005015560c0820151816006015550506000600d828154811062000573577f4e487b7100000000000000000000000000000000000000000000000000000000600052603260045260246000fd5b90600052602060002090600702016040518060e001604052908160008201548152602001600182018054620005a89062000f80565b80601f0160208091040260200160405190810160405280929190818152602001828054620005d69062000f80565b8015620006275780601f10620005fb5761010080835404028352916020019162000627565b820191906000526020600020905b8154815290600101906020018083116200060957829003601f168201915b50505050508152602001600282018054620006429062000f80565b80601f0160208091040260200160405190810160405280929190818152602001828054620006709062000f80565b8015620006c15780601f106200069557610100808354040283529160200191620006c1565b820191906000526020600020905b815481529060010190602001808311620006a357829003601f168201915b505050505081526020016003820154815260200160048201548152602001600582015481526020016006820154815250509050620007326040518060600160405280602c815260200162005178602c9139826020015183606001518460c001516200081d60201b620017271760201c565b508080620007409062000fec565b915050620002d6565b5062000761600c620008c960201b620017c91760201c565b50505050505050505050620010f2565b62000817848484846040516024016200078e949392919062000daa565b6040516020818303038152906040527f8d142cdd000000000000000000000000000000000000000000000000000000007bffffffffffffffffffffffffffffffffffffffffffffffffffffffff19166020820180517bffffffffffffffffffffffffffffffffffffffffffffffffffffffff8381831617835250505050620008df60201b60201c565b50505050565b620008c3848484846040516024016200083a949392919062000e0c565b6040516020818303038152906040527fd5cf17d0000000000000000000000000000000000000000000000000000000007bffffffffffffffffffffffffffffffffffffffffffffffffffffffff19166020820180517bffffffffffffffffffffffffffffffffffffffffffffffffffffffff8381831617835250505050620008df60201b60201c565b50505050565b6001816000016000828254019250508190555050565b60008151905060006a636f6e736f6c652e6c6f679050602083016000808483855afa5050505050565b828054620009169062000f80565b90600052602060002090601f0160209004810192826200093a576000855562000986565b82601f106200095557805160ff191683800117855562000986565b8280016001018555821562000986579182015b828111156200098557825182559160200191906001019062000968565b5b50905062000995919062000999565b5090565b5b80821115620009b45760008160009055506001016200099a565b5090565b6000620009cf620009c98462000e90565b62000e67565b90508083825260208201905082856020860282011115620009ef57600080fd5b60005b8581101562000a3e57815167ffffffffffffffff81111562000a1357600080fd5b80860162000a22898262000b5c565b85526020850194506020840193505050600181019050620009f2565b5050509392505050565b600062000a5f62000a598462000ebf565b62000e67565b9050808382526020820190508285602086028201111562000a7f57600080fd5b60005b8581101562000ab3578162000a98888262000b89565b84526020840193506020830192505060018101905062000a82565b5050509392505050565b600062000ad462000ace8462000eee565b62000e67565b90508281526020810184848401111562000aed57600080fd5b62000afa84828562000f4a565b509392505050565b600082601f83011262000b1457600080fd5b815162000b26848260208601620009b8565b91505092915050565b600082601f83011262000b4157600080fd5b815162000b5384826020860162000a48565b91505092915050565b600082601f83011262000b6e57600080fd5b815162000b8084826020860162000abd565b91505092915050565b60008151905062000b9a81620010d8565b92915050565b6000806000806000806000806000806101408b8d03121562000bc157600080fd5b60008b015167ffffffffffffffff81111562000bdc57600080fd5b62000bea8d828e0162000b02565b9a505060208b015167ffffffffffffffff81111562000c0857600080fd5b62000c168d828e0162000b02565b99505060408b015167ffffffffffffffff81111562000c3457600080fd5b62000c428d828e0162000b2f565b98505060608b015167ffffffffffffffff81111562000c6057600080fd5b62000c6e8d828e0162000b2f565b97505060808b015167ffffffffffffffff81111562000c8c57600080fd5b62000c9a8d828e0162000b2f565b96505060a08b015167ffffffffffffffff81111562000cb857600080fd5b62000cc68d828e0162000b2f565b95505060c08b015167ffffffffffffffff81111562000ce457600080fd5b62000cf28d828e0162000b5c565b94505060e08b015167ffffffffffffffff81111562000d1057600080fd5b62000d1e8d828e0162000b5c565b93505061010062000d328d828e0162000b89565b92505061012062000d468d828e0162000b89565b9150509295989b9194979a5092959850565b600062000d658262000f24565b62000d71818562000f2f565b935062000d8381856020860162000f4a565b62000d8e81620010c7565b840191505092915050565b62000da48162000f40565b82525050565b6000608082019050818103600083015262000dc6818762000d58565b9050818103602083015262000ddc818662000d58565b905062000ded604083018562000d99565b818103606083015262000e01818462000d58565b905095945050505050565b6000608082019050818103600083015262000e28818762000d58565b9050818103602083015262000e3e818662000d58565b905062000e4f604083018562000d99565b62000e5e606083018462000d99565b95945050505050565b600062000e7362000e86565b905062000e81828262000fb6565b919050565b6000604051905090565b600067ffffffffffffffff82111562000eae5762000ead62001098565b5b602082029050602081019050919050565b600067ffffffffffffffff82111562000edd5762000edc62001098565b5b602082029050602081019050919050565b600067ffffffffffffffff82111562000f0c5762000f0b62001098565b5b62000f1782620010c7565b9050602081019050919050565b600081519050919050565b600082825260208201905092915050565b6000819050919050565b60005b8381101562000f6a57808201518184015260208101905062000f4d565b8381111562000f7a576000848401525b50505050565b6000600282049050600182168062000f9957607f821691505b6020821081141562000fb05762000faf62001069565b5b50919050565b62000fc182620010c7565b810181811067ffffffffffffffff8211171562000fe35762000fe262001098565b5b80604052505050565b600062000ff98262000f40565b91507fffffffffffffffffffffffffffffffffffffffffffffffffffffffffffffffff8214156200102f576200102e6200103a565b5b600182019050919050565b7f4e487b7100000000000000000000000000000000000000000000000000000000600052601160045260246000fd5b7f4e487b7100000000000000000000000000000000000000000000000000000000600052602260045260246000fd5b7f4e487b7100000000000000000000000000000000000000000000000000000000600052604160045260246000fd5b6000601f19601f8301169050919050565b620010e38162000f40565b8114620010ef57600080fd5b50565b61407680620011026000396000f3fe608060405234801561001057600080fd5b50600436106101165760003560e01c80637df124a1116100a2578063a9c3267911610071578063a9c3267914610309578063b88d4fde1461032c578063c87b56dd14610348578063d4f24c5b14610378578063e985e9c51461038257610116565b80637df124a11461026957806395d89b411461029957806398da4c95146102b7578063a22cb465146102ed57610116565b806323b872dd116100e957806323b872dd146101b557806342842e0e146101d15780636352211e146101ed57806370a082311461021d5780637ba8b8d61461024d57610116565b806301ffc9a71461011b57806306fdde031461014b578063081812fc14610169578063095ea7b314610199575b600080fd5b61013560048036038101906101309190612a67565b6103b2565b6040516101429190613040565b60405180910390f35b610153610494565b604051610160919061305b565b60405180910390f35b610183600480360381019061017e9190612ab9565b610526565b6040516101909190612fd9565b60405180910390f35b6101b360048036038101906101ae9190612a2b565b6105ab565b005b6101cf60048036038101906101ca9190612925565b6106c3565b005b6101eb60048036038101906101e69190612925565b610723565b005b61020760048036038101906102029190612ab9565b610743565b6040516102149190612fd9565b60405180910390f35b610237600480360381019061023291906128c0565b6107f5565b60405161024491906133e7565b60405180910390f35b61026760048036038101906102629190612ab9565b6108ad565b005b610283600480360381019061027e91906128c0565b610cc1565b60405161029091906133e7565b60405180910390f35b6102a1610cd9565b6040516102ae919061305b565b60405180910390f35b6102d160048036038101906102cc9190612ab9565b610d6b565b6040516102e49796959493929190613402565b60405180910390f35b610307600480360381019061030291906129ef565b610ebd565b005b610311610ed3565b6040516103239695949392919061312a565b60405180910390f35b61034660048036038101906103419190612974565b61100d565b005b610362600480360381019061035d9190612ab9565b61106f565b60405161036f919061305b565b60405180910390f35b6103806112a8565b005b61039c600480360381019061039791906128e9565b6115f1565b6040516103a99190613040565b60405180910390f35b60007f80ac58cd000000000000000000000000000000000000000000000000000000007bffffffffffffffffffffffffffffffffffffffffffffffffffffffff1916827bffffffffffffffffffffffffffffffffffffffffffffffffffffffff1916148061047d57507f5b5e139f000000000000000000000000000000000000000000000000000000007bffffffffffffffffffffffffffffffffffffffffffffffffffffffff1916827bffffffffffffffffffffffffffffffffffffffffffffffffffffffff1916145b8061048d575061048c826117df565b5b9050919050565b6060600080546104a3906136e3565b80601f01602080910402602001604051908101604052809291908181526020018280546104cf906136e3565b801561051c5780601f106104f15761010080835404028352916020019161051c565b820191906000526020600020905b8154815290600101906020018083116104ff57829003601f168201915b5050505050905090565b600061053182611849565b610570576040517f08c379a000000000000000000000000000000000000000000000000000000000815260040161056790613367565b60405180910390fd5b6004600083815260200190815260200160002060009054906101000a900473ffffffffffffffffffffffffffffffffffffffff169050919050565b60006105b682610743565b90508073ffffffffffffffffffffffffffffffffffffffff168373ffffffffffffffffffffffffffffffffffffffff161415610627576040517f08c379a000000000000000000000000000000000000000000000000000000000815260040161061e906133a7565b60405180910390fd5b8073ffffffffffffffffffffffffffffffffffffffff166106466118b5565b73ffffffffffffffffffffffffffffffffffffffff16148061067557506106748161066f6118b5565b6115f1565b5b6106b4576040517f08c379a00000000000000000000000000000000000000000000000000000000081526004016106ab906132e7565b60405180910390fd5b6106be83836118bd565b505050565b6106d46106ce6118b5565b82611976565b610713576040517f08c379a000000000000000000000000000000000000000000000000000000000815260040161070a906133c7565b60405180910390fd5b61071e838383611a54565b505050565b61073e8383836040518060200160405280600081525061100d565b505050565b6000806002600084815260200190815260200160002060009054906101000a900473ffffffffffffffffffffffffffffffffffffffff169050600073ffffffffffffffffffffffffffffffffffffffff168173ffffffffffffffffffffffffffffffffffffffff1614156107ec576040517f08c379a00000000000000000000000000000000000000000000000000000000081526004016107e390613327565b60405180910390fd5b80915050919050565b60008073ffffffffffffffffffffffffffffffffffffffff168273ffffffffffffffffffffffffffffffffffffffff161415610866576040517f08c379a000000000000000000000000000000000000000000000000000000000815260040161085d90613307565b60405180910390fd5b600360008373ffffffffffffffffffffffffffffffffffffffff1673ffffffffffffffffffffffffffffffffffffffff168152602001908152602001600020549050919050565b60006108b9600c611cb0565b90506108c53382611cbe565b6040518060e00160405280838152602001600d8481548110610910577f4e487b7100000000000000000000000000000000000000000000000000000000600052603260045260246000fd5b9060005260206000209060070201600101805461092c906136e3565b80601f0160208091040260200160405190810160405280929190818152602001828054610958906136e3565b80156109a55780601f1061097a576101008083540402835291602001916109a5565b820191906000526020600020905b81548152906001019060200180831161098857829003601f168201915b50505050508152602001600d84815481106109e9577f4e487b7100000000000000000000000000000000000000000000000000000000600052603260045260246000fd5b90600052602060002090600702016002018054610a05906136e3565b80601f0160208091040260200160405190810160405280929190818152602001828054610a31906136e3565b8015610a7e5780601f10610a5357610100808354040283529160200191610a7e565b820191906000526020600020905b815481529060010190602001808311610a6157829003601f168201915b50505050508152602001600d8481548110610ac2577f4e487b7100000000000000000000000000000000000000000000000000000000600052603260045260246000fd5b9060005260206000209060070201600301548152602001600d8481548110610b13577f4e487b7100000000000000000000000000000000000000000000000000000000600052603260045260246000fd5b9060005260206000209060070201600401548152602001600d8481548110610b64577f4e487b7100000000000000000000000000000000000000000000000000000000600052603260045260246000fd5b9060005260206000209060070201600501548152602001600d8481548110610bb5577f4e487b7100000000000000000000000000000000000000000000000000000000600052603260045260246000fd5b906000526020600020906007020160060154815250600e6000838152602001908152602001600020600082015181600001556020820151816001019080519060200190610c0392919061274c565b506040820151816002019080519060200190610c2092919061274c565b50606082015181600301556080820151816004015560a0820151816005015560c08201518160060155905050610c6f604051806060016040528060308152602001613fd5603091398284611cdc565b80600f60003373ffffffffffffffffffffffffffffffffffffffff1673ffffffffffffffffffffffffffffffffffffffff16815260200190815260200160002081905550610cbd600c6117c9565b5050565b600f6020528060005260406000206000915090505481565b606060018054610ce8906136e3565b80601f0160208091040260200160405190810160405280929190818152602001828054610d14906136e3565b8015610d615780601f10610d3657610100808354040283529160200191610d61565b820191906000526020600020905b815481529060010190602001808311610d4457829003601f168201915b5050505050905090565b600e602052806000526040600020600091509050806000015490806001018054610d94906136e3565b80601f0160208091040260200160405190810160405280929190818152602001828054610dc0906136e3565b8015610e0d5780601f10610de257610100808354040283529160200191610e0d565b820191906000526020600020905b815481529060010190602001808311610df057829003601f168201915b505050505090806002018054610e22906136e3565b80601f0160208091040260200160405190810160405280929190818152602001828054610e4e906136e3565b8015610e9b5780601f10610e7057610100808354040283529160200191610e9b565b820191906000526020600020905b815481529060010190602001808311610e7e57829003601f168201915b5050505050908060030154908060040154908060050154908060060154905087565b610ecf610ec86118b5565b8383611d7b565b5050565b6006806000018054610ee4906136e3565b80601f0160208091040260200160405190810160405280929190818152602001828054610f10906136e3565b8015610f5d5780601f10610f3257610100808354040283529160200191610f5d565b820191906000526020600020905b815481529060010190602001808311610f4057829003601f168201915b505050505090806001018054610f72906136e3565b80601f0160208091040260200160405190810160405280929190818152602001828054610f9e906136e3565b8015610feb5780601f10610fc057610100808354040283529160200191610feb565b820191906000526020600020905b815481529060010190602001808311610fce57829003601f168201915b5050505050908060020154908060030154908060040154908060050154905086565b61101e6110186118b5565b83611976565b61105d576040517f08c379a0000000000000000000000000000000000000000000000000000000008152600401611054906133c7565b60405180910390fd5b61106984848484611ee8565b50505050565b60606000600e60008481526020019081526020016000206040518060e0016040529081600082015481526020016001820180546110ab906136e3565b80601f01602080910402602001604051908101604052809291908181526020018280546110d7906136e3565b80156111245780601f106110f957610100808354040283529160200191611124565b820191906000526020600020905b81548152906001019060200180831161110757829003601f168201915b5050505050815260200160028201805461113d906136e3565b80601f0160208091040260200160405190810160405280929190818152602001828054611169906136e3565b80156111b65780601f1061118b576101008083540402835291602001916111b6565b820191906000526020600020905b81548152906001019060200180831161119957829003601f168201915b50505050508152602001600382015481526020016004820154815260200160058201548152602001600682015481525050905060006111f88260600151611f44565b905060006112098360800151611f44565b9050600061121a8460a00151611f44565b9050600061122b8560c00151611f44565b9050600061127386602001516112408a611f44565b88604001518888888860405160200161125f9796959493929190612efa565b6040516020818303038152906040526120f1565b90506000816040516020016112889190612fb7565b604051602081830303815290604052905080975050505050505050919050565b6000600f60003373ffffffffffffffffffffffffffffffffffffffff1673ffffffffffffffffffffffffffffffffffffffff1681526020019081526020016000205490506000600e600083815260200190815260200160002090506113bb6040518060600160405280603c8152602001614005603c913982600101805461132e906136e3565b80601f016020809104026020016040519081016040528092919081815260200182805461135a906136e3565b80156113a75780601f1061137c576101008083540402835291602001916113a7565b820191906000526020600020905b81548152906001019060200180831161138a57829003601f168201915b505050505083600301548460050154611727565b6114936040518060400160405280601b81526020017f426f73732025732068617320257320485020616e64202573204144000000000081525060066000018054611404906136e3565b80601f0160208091040260200160405190810160405280929190818152602001828054611430906136e3565b801561147d5780601f106114525761010080835404028352916020019161147d565b820191906000526020600020905b81548152906001019060200180831161146057829003601f168201915b5050505050600660020154600660040154611727565b60008160030154116114da576040517f08c379a00000000000000000000000000000000000000000000000000000000081526004016114d190613207565b60405180910390fd5b600060066002015411611522576040517f08c379a000000000000000000000000000000000000000000000000000000000815260040161151990613227565b60405180910390fd5b80600501546006600201541015611543576000600660020181905550611562565b806005015460066002015461155891906135f9565b6006600201819055505b6006600401548160030154101561158257600081600301819055506115a0565b600660040154816003015461159791906135f9565b81600301819055505b6115c7604051806060016040528060258152602001613f48602591396006600201546122af565b6115ed604051806060016040528060288152602001613fad6028913982600301546122af565b5050565b6000600560008473ffffffffffffffffffffffffffffffffffffffff1673ffffffffffffffffffffffffffffffffffffffff16815260200190815260200160002060008373ffffffffffffffffffffffffffffffffffffffff1673ffffffffffffffffffffffffffffffffffffffff16815260200190815260200160002060009054906101000a900460ff16905092915050565b6117218484848460405160240161169f949392919061307d565b6040516020818303038152906040527f8d142cdd000000000000000000000000000000000000000000000000000000007bffffffffffffffffffffffffffffffffffffffffffffffffffffffff19166020820180517bffffffffffffffffffffffffffffffffffffffffffffffffffffffff838183161783525050505061234b565b50505050565b6117c38484848460405160240161174194939291906130d7565b6040516020818303038152906040527fd5cf17d0000000000000000000000000000000000000000000000000000000007bffffffffffffffffffffffffffffffffffffffffffffffffffffffff19166020820180517bffffffffffffffffffffffffffffffffffffffffffffffffffffffff838183161783525050505061234b565b50505050565b6001816000016000828254019250508190555050565b60007f01ffc9a7000000000000000000000000000000000000000000000000000000007bffffffffffffffffffffffffffffffffffffffffffffffffffffffff1916827bffffffffffffffffffffffffffffffffffffffffffffffffffffffff1916149050919050565b60008073ffffffffffffffffffffffffffffffffffffffff166002600084815260200190815260200160002060009054906101000a900473ffffffffffffffffffffffffffffffffffffffff1673ffffffffffffffffffffffffffffffffffffffff1614159050919050565b600033905090565b816004600083815260200190815260200160002060006101000a81548173ffffffffffffffffffffffffffffffffffffffff021916908373ffffffffffffffffffffffffffffffffffffffff160217905550808273ffffffffffffffffffffffffffffffffffffffff1661193083610743565b73ffffffffffffffffffffffffffffffffffffffff167f8c5be1e5ebec7d5bd14f71427d1e84f3dd0314c0f7b2291e5b200ac8c7c3b92560405160405180910390a45050565b600061198182611849565b6119c0576040517f08c379a00000000000000000000000000000000000000000000000000000000081526004016119b7906132c7565b60405180910390fd5b60006119cb83610743565b90508073ffffffffffffffffffffffffffffffffffffffff168473ffffffffffffffffffffffffffffffffffffffff161480611a3a57508373ffffffffffffffffffffffffffffffffffffffff16611a2284610526565b73ffffffffffffffffffffffffffffffffffffffff16145b80611a4b5750611a4a81856115f1565b5b91505092915050565b8273ffffffffffffffffffffffffffffffffffffffff16611a7482610743565b73ffffffffffffffffffffffffffffffffffffffff1614611aca576040517f08c379a0000000000000000000000000000000000000000000000000000000008152600401611ac190613387565b60405180910390fd5b600073ffffffffffffffffffffffffffffffffffffffff168273ffffffffffffffffffffffffffffffffffffffff161415611b3a576040517f08c379a0000000000000000000000000000000000000000000000000000000008152600401611b3190613287565b60405180910390fd5b611b45838383612374565b611b506000826118bd565b6001600360008573ffffffffffffffffffffffffffffffffffffffff1673ffffffffffffffffffffffffffffffffffffffff1681526020019081526020016000206000828254611ba091906135f9565b925050819055506001600360008473ffffffffffffffffffffffffffffffffffffffff1673ffffffffffffffffffffffffffffffffffffffff1681526020019081526020016000206000828254611bf79190613518565b92505081905550816002600083815260200190815260200160002060006101000a81548173ffffffffffffffffffffffffffffffffffffffff021916908373ffffffffffffffffffffffffffffffffffffffff160217905550808273ffffffffffffffffffffffffffffffffffffffff168473ffffffffffffffffffffffffffffffffffffffff167fddf252ad1be2c89b69c2b068fc378daa952ba7f163c4a11628f55a4df523b3ef60405160405180910390a4505050565b600081600001549050919050565b611cd8828260405180602001604052806000815250612379565b5050565b611d76838383604051602401611cf4939291906131c9565b6040516020818303038152906040527f969cdd03000000000000000000000000000000000000000000000000000000007bffffffffffffffffffffffffffffffffffffffffffffffffffffffff19166020820180517bffffffffffffffffffffffffffffffffffffffffffffffffffffffff838183161783525050505061234b565b505050565b8173ffffffffffffffffffffffffffffffffffffffff168373ffffffffffffffffffffffffffffffffffffffff161415611dea576040517f08c379a0000000000000000000000000000000000000000000000000000000008152600401611de1906132a7565b60405180910390fd5b80600560008573ffffffffffffffffffffffffffffffffffffffff1673ffffffffffffffffffffffffffffffffffffffff16815260200190815260200160002060008473ffffffffffffffffffffffffffffffffffffffff1673ffffffffffffffffffffffffffffffffffffffff16815260200190815260200160002060006101000a81548160ff0219169083151502179055508173ffffffffffffffffffffffffffffffffffffffff168373ffffffffffffffffffffffffffffffffffffffff167f17307eab39ab6107e8899845ad3d59bd9653f200f220920489ca2b5937696c3183604051611edb9190613040565b60405180910390a3505050565b611ef3848484611a54565b611eff848484846123d4565b611f3e576040517f08c379a0000000000000000000000000000000000000000000000000000000008152600401611f3590613247565b60405180910390fd5b50505050565b60606000821415611f8c576040518060400160405280600181526020017f300000000000000000000000000000000000000000000000000000000000000081525090506120ec565b600082905060005b60008214611fbe578080611fa790613746565b915050600a82611fb7919061356e565b9150611f94565b60008167ffffffffffffffff811115612000577f4e487b7100000000000000000000000000000000000000000000000000000000600052604160045260246000fd5b6040519080825280601f01601f1916602001820160405280156120325781602001600182028036833780820191505090505b5090505b600085146120e55760018261204b91906135f9565b9150600a8561205a919061378f565b60306120669190613518565b60f81b8183815181106120a2577f4e487b7100000000000000000000000000000000000000000000000000000000600052603260045260246000fd5b60200101907effffffffffffffffffffffffffffffffffffffffffffffffffffffffffffff1916908160001a905350600a856120de919061356e565b9450612036565b8093505050505b919050565b6060600082519050600081141561211a57604051806020016040528060008152509150506122aa565b6000600360028361212b9190613518565b612135919061356e565b6004612141919061359f565b905060006020826121529190613518565b67ffffffffffffffff811115612191577f4e487b7100000000000000000000000000000000000000000000000000000000600052604160045260246000fd5b6040519080825280601f01601f1916602001820160405280156121c35781602001600182028036833780820191505090505b5090506000604051806060016040528060408152602001613f6d604091399050600181016020830160005b868110156122675760038101905062ffffff818a015116603f8160121c168401518060081b905060ff603f83600c1c1686015116810190508060081b905060ff603f8360061c1686015116810190508060081b905060ff603f831686015116810190508060e01b905080845260048401935050506121ee565b50600386066001811461228157600281146122915761229c565b613d3d60f01b600283035261229c565b603d60f81b60018303525b508484525050819450505050505b919050565b61234782826040516024016122c5929190613199565b6040516020818303038152906040527f9710a9d0000000000000000000000000000000000000000000000000000000007bffffffffffffffffffffffffffffffffffffffffffffffffffffffff19166020820180517bffffffffffffffffffffffffffffffffffffffffffffffffffffffff838183161783525050505061234b565b5050565b60008151905060006a636f6e736f6c652e6c6f679050602083016000808483855afa5050505050565b505050565b612383838361256b565b61239060008484846123d4565b6123cf576040517f08c379a00000000000000000000000000000000000000000000000000000000081526004016123c690613247565b60405180910390fd5b505050565b60006123f58473ffffffffffffffffffffffffffffffffffffffff16612739565b1561255e578373ffffffffffffffffffffffffffffffffffffffff1663150b7a0261241e6118b5565b8786866040518563ffffffff1660e01b81526004016124409493929190612ff4565b602060405180830381600087803b15801561245a57600080fd5b505af192505050801561248b57506040513d601f19601f820116820180604052508101906124889190612a90565b60015b61250e573d80600081146124bb576040519150601f19603f3d011682016040523d82523d6000602084013e6124c0565b606091505b50600081511415612506576040517f08c379a00000000000000000000000000000000000000000000000000000000081526004016124fd90613247565b60405180910390fd5b805181602001fd5b63150b7a0260e01b7bffffffffffffffffffffffffffffffffffffffffffffffffffffffff1916817bffffffffffffffffffffffffffffffffffffffffffffffffffffffff191614915050612563565b600190505b949350505050565b600073ffffffffffffffffffffffffffffffffffffffff168273ffffffffffffffffffffffffffffffffffffffff1614156125db576040517f08c379a00000000000000000000000000000000000000000000000000000000081526004016125d290613347565b60405180910390fd5b6125e481611849565b15612624576040517f08c379a000000000000000000000000000000000000000000000000000000000815260040161261b90613267565b60405180910390fd5b61263060008383612374565b6001600360008473ffffffffffffffffffffffffffffffffffffffff1673ffffffffffffffffffffffffffffffffffffffff16815260200190815260200160002060008282546126809190613518565b92505081905550816002600083815260200190815260200160002060006101000a81548173ffffffffffffffffffffffffffffffffffffffff021916908373ffffffffffffffffffffffffffffffffffffffff160217905550808273ffffffffffffffffffffffffffffffffffffffff16600073ffffffffffffffffffffffffffffffffffffffff167fddf252ad1be2c89b69c2b068fc378daa952ba7f163c4a11628f55a4df523b3ef60405160405180910390a45050565b600080823b905060008111915050919050565b828054612758906136e3565b90600052602060002090601f01602090048101928261277a57600085556127c1565b82601f1061279357805160ff19168380011785556127c1565b828001600101855582156127c1579182015b828111156127c05782518255916020019190600101906127a5565b5b5090506127ce91906127d2565b5090565b5b808211156127eb5760008160009055506001016127d3565b5090565b60006128026127fd846134a4565b61347f565b90508281526020810184848401111561281a57600080fd5b6128258482856136a1565b509392505050565b60008135905061283c81613eeb565b92915050565b60008135905061285181613f02565b92915050565b60008135905061286681613f19565b92915050565b60008151905061287b81613f19565b92915050565b600082601f83011261289257600080fd5b81356128a28482602086016127ef565b91505092915050565b6000813590506128ba81613f30565b92915050565b6000602082840312156128d257600080fd5b60006128e08482850161282d565b91505092915050565b600080604083850312156128fc57600080fd5b600061290a8582860161282d565b925050602061291b8582860161282d565b9150509250929050565b60008060006060848603121561293a57600080fd5b60006129488682870161282d565b93505060206129598682870161282d565b925050604061296a868287016128ab565b9150509250925092565b6000806000806080858703121561298a57600080fd5b60006129988782880161282d565b94505060206129a98782880161282d565b93505060406129ba878288016128ab565b925050606085013567ffffffffffffffff8111156129d757600080fd5b6129e387828801612881565b91505092959194509250565b60008060408385031215612a0257600080fd5b6000612a108582860161282d565b9250506020612a2185828601612842565b9150509250929050565b60008060408385031215612a3e57600080fd5b6000612a4c8582860161282d565b9250506020612a5d858286016128ab565b9150509250929050565b600060208284031215612a7957600080fd5b6000612a8784828501612857565b91505092915050565b600060208284031215612aa257600080fd5b6000612ab08482850161286c565b91505092915050565b600060208284031215612acb57600080fd5b6000612ad9848285016128ab565b91505092915050565b612aeb8161362d565b82525050565b612afa8161363f565b82525050565b6000612b0b826134d5565b612b1581856134eb565b9350612b258185602086016136b0565b612b2e8161387c565b840191505092915050565b6000612b44826134e0565b612b4e81856134fc565b9350612b5e8185602086016136b0565b612b678161387c565b840191505092915050565b6000612b7d826134e0565b612b87818561350d565b9350612b978185602086016136b0565b80840191505092915050565b6000612bb0600b8361350d565b9150612bbb8261388d565b600b82019050919050565b6000612bd3602c836134fc565b9150612bde826138b6565b604082019050919050565b6000612bf6602c836134fc565b9150612c0182613905565b604082019050919050565b6000612c19602c8361350d565b9150612c2482613954565b602c82019050919050565b6000612c3c6032836134fc565b9150612c47826139a3565b604082019050919050565b6000612c5f601c836134fc565b9150612c6a826139f2565b602082019050919050565b6000612c8260498361350d565b9150612c8d82613a1b565b604982019050919050565b6000612ca56024836134fc565b9150612cb082613a90565b604082019050919050565b6000612cc86019836134fc565b9150612cd382613adf565b602082019050919050565b6000612ceb600f8361350d565b9150612cf682613b08565b600f82019050919050565b6000612d0e602c836134fc565b9150612d1982613b31565b604082019050919050565b6000612d316038836134fc565b9150612d3c82613b80565b604082019050919050565b6000612d54602a836134fc565b9150612d5f82613bcf565b604082019050919050565b6000612d776029836134fc565b9150612d8282613c1e565b604082019050919050565b6000612d9a60048361350d565b9150612da582613c6d565b600482019050919050565b6000612dbd6020836134fc565b9150612dc882613c96565b602082019050919050565b6000612de0603c8361350d565b9150612deb82613cbf565b603c82019050919050565b6000612e03602c836134fc565b9150612e0e82613d0e565b604082019050919050565b6000612e266029836134fc565b9150612e3182613d5d565b604082019050919050565b6000612e49600a8361350d565b9150612e5482613dac565b600a82019050919050565b6000612e6c6021836134fc565b9150612e7782613dd5565b604082019050919050565b6000612e8f602d8361350d565b9150612e9a82613e24565b602d82019050919050565b6000612eb2601d8361350d565b9150612ebd82613e73565b601d82019050919050565b6000612ed56031836134fc565b9150612ee082613e9c565b604082019050919050565b612ef481613697565b82525050565b6000612f0582612e3c565b9150612f11828a612b72565b9150612f1c82612ba3565b9150612f288289612b72565b9150612f3382612c75565b9150612f3f8288612b72565b9150612f4a82612dd3565b9150612f568287612b72565b9150612f6182612cde565b9150612f6d8286612b72565b9150612f7882612c0c565b9150612f848285612b72565b9150612f8f82612e82565b9150612f9b8284612b72565b9150612fa682612d8d565b915081905098975050505050505050565b6000612fc282612ea5565b9150612fce8284612b72565b915081905092915050565b6000602082019050612fee6000830184612ae2565b92915050565b60006080820190506130096000830187612ae2565b6130166020830186612ae2565b6130236040830185612eeb565b81810360608301526130358184612b00565b905095945050505050565b60006020820190506130556000830184612af1565b92915050565b600060208201905081810360008301526130758184612b39565b905092915050565b600060808201905081810360008301526130978187612b39565b905081810360208301526130ab8186612b39565b90506130ba6040830185612eeb565b81810360608301526130cc8184612b39565b905095945050505050565b600060808201905081810360008301526130f18187612b39565b905081810360208301526131058186612b39565b90506131146040830185612eeb565b6131216060830184612eeb565b95945050505050565b600060c08201905081810360008301526131448189612b39565b905081810360208301526131588188612b39565b90506131676040830187612eeb565b6131746060830186612eeb565b6131816080830185612eeb565b61318e60a0830184612eeb565b979650505050505050565b600060408201905081810360008301526131b38185612b39565b90506131c26020830184612eeb565b9392505050565b600060608201905081810360008301526131e38186612b39565b90506131f26020830185612eeb565b6131ff6040830184612eeb565b949350505050565b6000602082019050818103600083015261322081612bc6565b9050919050565b6000602082019050818103600083015261324081612be9565b9050919050565b6000602082019050818103600083015261326081612c2f565b9050919050565b6000602082019050818103600083015261328081612c52565b9050919050565b600060208201905081810360008301526132a081612c98565b9050919050565b600060208201905081810360008301526132c081612cbb565b9050919050565b600060208201905081810360008301526132e081612d01565b9050919050565b6000602082019050818103600083015261330081612d24565b9050919050565b6000602082019050818103600083015261332081612d47565b9050919050565b6000602082019050818103600083015261334081612d6a565b9050919050565b6000602082019050818103600083015261336081612db0565b9050919050565b6000602082019050818103600083015261338081612df6565b9050919050565b600060208201905081810360008301526133a081612e19565b9050919050565b600060208201905081810360008301526133c081612e5f565b9050919050565b600060208201905081810360008301526133e081612ec8565b9050919050565b60006020820190506133fc6000830184612eeb565b92915050565b600060e082019050613417600083018a612eeb565b81810360208301526134298189612b39565b9050818103604083015261343d8188612b39565b905061344c6060830187612eeb565b6134596080830186612eeb565b61346660a0830185612eeb565b61347360c0830184612eeb565b98975050505050505050565b600061348961349a565b90506134958282613715565b919050565b6000604051905090565b600067ffffffffffffffff8211156134bf576134be61384d565b5b6134c88261387c565b9050602081019050919050565b600081519050919050565b600081519050919050565b600082825260208201905092915050565b600082825260208201905092915050565b600081905092915050565b600061352382613697565b915061352e83613697565b9250827fffffffffffffffffffffffffffffffffffffffffffffffffffffffffffffffff03821115613563576135626137c0565b5b828201905092915050565b600061357982613697565b915061358483613697565b925082613594576135936137ef565b5b828204905092915050565b60006135aa82613697565b91506135b583613697565b9250817fffffffffffffffffffffffffffffffffffffffffffffffffffffffffffffffff04831182151516156135ee576135ed6137c0565b5b828202905092915050565b600061360482613697565b915061360f83613697565b925082821015613622576136216137c0565b5b828203905092915050565b600061363882613677565b9050919050565b60008115159050919050565b60007fffffffff0000000000000000000000000000000000000000000000000000000082169050919050565b600073ffffffffffffffffffffffffffffffffffffffff82169050919050565b6000819050919050565b82818337600083830152505050565b60005b838110156136ce5780820151818401526020810190506136b3565b838111156136dd576000848401525b50505050565b600060028204905060018216806136fb57607f821691505b6020821081141561370f5761370e61381e565b5b50919050565b61371e8261387c565b810181811067ffffffffffffffff8211171561373d5761373c61384d565b5b80604052505050565b600061375182613697565b91507fffffffffffffffffffffffffffffffffffffffffffffffffffffffffffffffff821415613784576137836137c0565b5b600182019050919050565b600061379a82613697565b91506137a583613697565b9250826137b5576137b46137ef565b5b828206905092915050565b7f4e487b7100000000000000000000000000000000000000000000000000000000600052601160045260246000fd5b7f4e487b7100000000000000000000000000000000000000000000000000000000600052601260045260246000fd5b7f4e487b7100000000000000000000000000000000000000000000000000000000600052602260045260246000fd5b7f4e487b7100000000000000000000000000000000000000000000000000000000600052604160045260246000fd5b6000601f19601f8301169050919050565b7f202d2d204e465420233a20000000000000000000000000000000000000000000600082015250565b7f4572726f723a20636861726163746572206d757374206861766520485020746f60008201527f2061747461636b20626f73730000000000000000000000000000000000000000602082015250565b7f4572726f723a20626f7373206d757374206861766520485020746f206174746160008201527f636b206368617261637465720000000000000000000000000000000000000000602082015250565b7f7d2c207b2274726169745f74797065223a202241747461636b2044616d61676560008201527f222c202276616c7565223a200000000000000000000000000000000000000000602082015250565b7f4552433732313a207472616e7366657220746f206e6f6e20455243373231526560008201527f63656976657220696d706c656d656e7465720000000000000000000000000000602082015250565b7f4552433732313a20746f6b656e20616c7265616479206d696e74656400000000600082015250565b7f222c20226465736372697074696f6e223a20225468697320697320616e204e4660008201527f542074686174206c6574732070656f706c652066756e20706c61792e222c202260208201527f696d616765223a20220000000000000000000000000000000000000000000000604082015250565b7f4552433732313a207472616e7366657220746f20746865207a65726f2061646460008201527f7265737300000000000000000000000000000000000000000000000000000000602082015250565b7f4552433732313a20617070726f766520746f2063616c6c657200000000000000600082015250565b7f2c20226d61785f76616c7565223a200000000000000000000000000000000000600082015250565b7f4552433732313a206f70657261746f7220717565727920666f72206e6f6e657860008201527f697374656e7420746f6b656e0000000000000000000000000000000000000000602082015250565b7f4552433732313a20617070726f76652063616c6c6572206973206e6f74206f7760008201527f6e6572206e6f7220617070726f76656420666f7220616c6c0000000000000000602082015250565b7f4552433732313a2062616c616e636520717565727920666f7220746865207a6560008201527f726f206164647265737300000000000000000000000000000000000000000000602082015250565b7f4552433732313a206f776e657220717565727920666f72206e6f6e657869737460008201527f656e7420746f6b656e0000000000000000000000000000000000000000000000602082015250565b7f7d205d7d00000000000000000000000000000000000000000000000000000000600082015250565b7f4552433732313a206d696e7420746f20746865207a65726f2061646472657373600082015250565b7f222c202261747472696275746573223a205b207b2274726169745f747970652260008201527f3a20224865616c746820506f696e7473222c202276616c7565223a2000000000602082015250565b7f4552433732313a20617070726f76656420717565727920666f72206e6f6e657860008201527f697374656e7420746f6b656e0000000000000000000000000000000000000000602082015250565b7f4552433732313a207472616e73666572206f6620746f6b656e2074686174206960008201527f73206e6f74206f776e0000000000000000000000000000000000000000000000602082015250565b7f7b226e616d65223a202200000000000000000000000000000000000000000000600082015250565b7f4552433732313a20617070726f76616c20746f2063757272656e74206f776e6560008201527f7200000000000000000000000000000000000000000000000000000000000000602082015250565b7f7d2c207b2274726169745f74797065223a2022446566656e636520506f696e7460008201527f73222c202276616c7565223a2000000000000000000000000000000000000000602082015250565b7f646174613a6170706c69636174696f6e2f6a736f6e3b6261736536342c000000600082015250565b7f4552433732313a207472616e736665722063616c6c6572206973206e6f74206f60008201527f776e6572206e6f7220617070726f766564000000000000000000000000000000602082015250565b613ef48161362d565b8114613eff57600080fd5b50565b613f0b8161363f565b8114613f1657600080fd5b50565b613f228161364b565b8114613f2d57600080fd5b50565b613f3981613697565b8114613f4457600080fd5b5056fe506c617965722061747461636b656420626f73732e204e657720626f73732068703a2025734142434445464748494a4b4c4d4e4f505152535455565758595a6162636465666768696a6b6c6d6e6f707172737475767778797a303132333435363738392b2f426f73732061747461636b656420706c617965722e204e657720706c617965722068703a2025730a4d696e746564204e4654207769746820746f6b656e496420257320616e6420636861726163746572496e6465782025730a506c6179657220772f206368617261637465722025732061626f757420746f2061747461636b2e2048617320257320485020616e64202573204144a2646970667358221220efe5f644839154ab27a298332b8af0047150f017ea2ec540cfa74b2b922eb4d164736f6c63430008040033446f6e6520696e697469616c697a696e672025732077697468202d3e2048503a2025732c2044463a2025732e446f6e6520696e697469616c697a696e6720626f737320257320776974682048502025732c20696d67202573",
  "linkReferences": {},
  "deployedLinkReferences": {}
}