{
  "_format": "hh-sol-artifact-1",
  "contractName": "EpicGame",
  "sourceName": "contracts/EpicGame.sol",
  "abi": [
    {
      "inputs": [
        {
          "internalType": "string[]",
          "name": "charNames",
          "type": "string[]"
        },
        {
          "internalType": "string[]",
          "name": "charImageURIs",
          "type": "string[]"
        },
        {
          "internalType": "uint256[]",
          "name": "charHp",
          "type": "uint256[]"
        },
        {
          "internalType": "uint256[]",
          "name": "maxHp",
          "type": "uint256[]"
        },
        {
          "internalType": "uint256[]",
          "name": "charAttackDamage",
          "type": "uint256[]"
        },
        {
          "internalType": "uint256[]",
          "name": "charDefence",
          "type": "uint256[]"
        },
        {
          "internalType": "string",
          "name": "bossName",
          "type": "string"
        },
        {
          "internalType": "string",
          "name": "bossImageURI",
          "type": "string"
        },
        {
          "internalType": "uint256",
          "name": "bossHp",
          "type": "uint256"
        },
        {
          "internalType": "uint256",
          "name": "bossAttackDamage",
          "type": "uint256"
        }
      ],
      "stateMutability": "nonpayable",
      "type": "constructor"
    },
    {
      "anonymous": false,
      "inputs": [
        {
          "indexed": true,
          "internalType": "address",
          "name": "owner",
          "type": "address"
        },
        {
          "indexed": true,
          "internalType": "address",
          "name": "approved",
          "type": "address"
        },
        {
          "indexed": true,
          "internalType": "uint256",
          "name": "tokenId",
          "type": "uint256"
        }
      ],
      "name": "Approval",
      "type": "event"
    },
    {
      "anonymous": false,
      "inputs": [
        {
          "indexed": true,
          "internalType": "address",
          "name": "owner",
          "type": "address"
        },
        {
          "indexed": true,
          "internalType": "address",
          "name": "operator",
          "type": "address"
        },
        {
          "indexed": false,
          "internalType": "bool",
          "name": "approved",
          "type": "bool"
        }
      ],
      "name": "ApprovalForAll",
      "type": "event"
    },
    {
      "anonymous": false,
      "inputs": [
        {
          "indexed": false,
          "internalType": "uint256",
          "name": "newBossHp",
          "type": "uint256"
        },
        {
          "indexed": false,
          "internalType": "uint256",
          "name": "newPlayerHp",
          "type": "uint256"
        }
      ],
      "name": "AttackComplete",
      "type": "event"
    },
    {
      "anonymous": false,
      "inputs": [
        {
          "indexed": false,
          "internalType": "address",
          "name": "sender",
          "type": "address"
        },
        {
          "indexed": false,
          "internalType": "uint256",
          "name": "tokenId",
          "type": "uint256"
        },
        {
          "indexed": false,
          "internalType": "uint256",
          "name": "characterIndex",
          "type": "uint256"
        }
      ],
      "name": "CharacterNFTMined",
      "type": "event"
    },
    {
      "anonymous": false,
      "inputs": [
        {
          "indexed": true,
          "internalType": "address",
          "name": "from",
          "type": "address"
        },
        {
          "indexed": true,
          "internalType": "address",
          "name": "to",
          "type": "address"
        },
        {
          "indexed": true,
          "internalType": "uint256",
          "name": "tokenId",
          "type": "uint256"
        }
      ],
      "name": "Transfer",
      "type": "event"
    },
    {
      "inputs": [
        {
          "internalType": "address",
          "name": "to",
          "type": "address"
        },
        {
          "internalType": "uint256",
          "name": "tokenId",
          "type": "uint256"
        }
      ],
      "name": "approve",
      "outputs": [],
      "stateMutability": "nonpayable",
      "type": "function"
    },
    {
      "inputs": [],
      "name": "attackBoss",
      "outputs": [],
      "stateMutability": "nonpayable",
      "type": "function"
    },
    {
      "inputs": [
        {
          "internalType": "address",
          "name": "owner",
          "type": "address"
        }
      ],
      "name": "balanceOf",
      "outputs": [
        {
          "internalType": "uint256",
          "name": "",
          "type": "uint256"
        }
      ],
      "stateMutability": "view",
      "type": "function"
    },
    {
      "inputs": [],
      "name": "bigBoss",
      "outputs": [
        {
          "internalType": "string",
          "name": "name",
          "type": "string"
        },
        {
          "internalType": "string",
          "name": "imageURI",
          "type": "string"
        },
        {
          "internalType": "uint256",
          "name": "hp",
          "type": "uint256"
        },
        {
          "internalType": "uint256",
          "name": "maxHp",
          "type": "uint256"
        },
        {
          "internalType": "uint256",
          "name": "attackDamage",
          "type": "uint256"
        },
        {
          "internalType": "uint256",
          "name": "defence",
          "type": "uint256"
        }
      ],
      "stateMutability": "view",
      "type": "function"
    },
    {
      "inputs": [],
      "name": "checkIfUserHaveNFT",
      "outputs": [
        {
          "components": [
            {
              "internalType": "uint256",
              "name": "charIndex",
              "type": "uint256"
            },
            {
              "internalType": "string",
              "name": "name",
              "type": "string"
            },
            {
              "internalType": "string",
              "name": "imageURI",
              "type": "string"
            },
            {
              "internalType": "uint256",
              "name": "hp",
              "type": "uint256"
            },
            {
              "internalType": "uint256",
              "name": "maxHp",
              "type": "uint256"
            },
            {
              "internalType": "uint256",
              "name": "attackDamage",
              "type": "uint256"
            },
            {
              "internalType": "uint256",
              "name": "defence",
              "type": "uint256"
            }
          ],
          "internalType": "struct EpicGame.CharAttributes",
          "name": "",
          "type": "tuple"
        }
      ],
      "stateMutability": "view",
      "type": "function"
    },
    {
      "inputs": [],
      "name": "getAllDefaultCharacters",
      "outputs": [
        {
          "components": [
            {
              "internalType": "uint256",
              "name": "charIndex",
              "type": "uint256"
            },
            {
              "internalType": "string",
              "name": "name",
              "type": "string"
            },
            {
              "internalType": "string",
              "name": "imageURI",
              "type": "string"
            },
            {
              "internalType": "uint256",
              "name": "hp",
              "type": "uint256"
            },
            {
              "internalType": "uint256",
              "name": "maxHp",
              "type": "uint256"
            },
            {
              "internalType": "uint256",
              "name": "attackDamage",
              "type": "uint256"
            },
            {
              "internalType": "uint256",
              "name": "defence",
              "type": "uint256"
            }
          ],
          "internalType": "struct EpicGame.CharAttributes[]",
          "name": "",
          "type": "tuple[]"
        }
      ],
      "stateMutability": "view",
      "type": "function"
    },
    {
      "inputs": [
        {
          "internalType": "uint256",
          "name": "tokenId",
          "type": "uint256"
        }
      ],
      "name": "getApproved",
      "outputs": [
        {
          "internalType": "address",
          "name": "",
          "type": "address"
        }
      ],
      "stateMutability": "view",
      "type": "function"
    },
    {
      "inputs": [],
      "name": "getBigBoss",
      "outputs": [
        {
          "components": [
            {
              "internalType": "string",
              "name": "name",
              "type": "string"
            },
            {
              "internalType": "string",
              "name": "imageURI",
              "type": "string"
            },
            {
              "internalType": "uint256",
              "name": "hp",
              "type": "uint256"
            },
            {
              "internalType": "uint256",
              "name": "maxHp",
              "type": "uint256"
            },
            {
              "internalType": "uint256",
              "name": "attackDamage",
              "type": "uint256"
            },
            {
              "internalType": "uint256",
              "name": "defence",
              "type": "uint256"
            }
          ],
          "internalType": "struct EpicGame.BigBoss",
          "name": "",
          "type": "tuple"
        }
      ],
      "stateMutability": "view",
      "type": "function"
    },
    {
      "inputs": [
        {
          "internalType": "address",
          "name": "owner",
          "type": "address"
        },
        {
          "internalType": "address",
          "name": "operator",
          "type": "address"
        }
      ],
      "name": "isApprovedForAll",
      "outputs": [
        {
          "internalType": "bool",
          "name": "",
          "type": "bool"
        }
      ],
      "stateMutability": "view",
      "type": "function"
    },
    {
      "inputs": [
        {
          "internalType": "uint256",
          "name": "_charIndex",
          "type": "uint256"
        }
      ],
      "name": "mintCharNFT",
      "outputs": [],
      "stateMutability": "nonpayable",
      "type": "function"
    },
    {
      "inputs": [],
      "name": "name",
      "outputs": [
        {
          "internalType": "string",
          "name": "",
          "type": "string"
        }
      ],
      "stateMutability": "view",
      "type": "function"
    },
    {
      "inputs": [
        {
          "internalType": "uint256",
          "name": "",
          "type": "uint256"
        }
      ],
      "name": "nftHolderAttributes",
      "outputs": [
        {
          "internalType": "uint256",
          "name": "charIndex",
          "type": "uint256"
        },
        {
          "internalType": "string",
          "name": "name",
          "type": "string"
        },
        {
          "internalType": "string",
          "name": "imageURI",
          "type": "string"
        },
        {
          "internalType": "uint256",
          "name": "hp",
          "type": "uint256"
        },
        {
          "internalType": "uint256",
          "name": "maxHp",
          "type": "uint256"
        },
        {
          "internalType": "uint256",
          "name": "attackDamage",
          "type": "uint256"
        },
        {
          "internalType": "uint256",
          "name": "defence",
          "type": "uint256"
        }
      ],
      "stateMutability": "view",
      "type": "function"
    },
    {
      "inputs": [
        {
          "internalType": "address",
          "name": "",
          "type": "address"
        }
      ],
      "name": "nftHolders",
      "outputs": [
        {
          "internalType": "uint256",
          "name": "",
          "type": "uint256"
        }
      ],
      "stateMutability": "view",
      "type": "function"
    },
    {
      "inputs": [
        {
          "internalType": "uint256",
          "name": "tokenId",
          "type": "uint256"
        }
      ],
      "name": "ownerOf",
      "outputs": [
        {
          "internalType": "address",
          "name": "",
          "type": "address"
        }
      ],
      "stateMutability": "view",
      "type": "function"
    },
    {
      "inputs": [
        {
          "internalType": "address",
          "name": "from",
          "type": "address"
        },
        {
          "internalType": "address",
          "name": "to",
          "type": "address"
        },
        {
          "internalType": "uint256",
          "name": "tokenId",
          "type": "uint256"
        }
      ],
      "name": "safeTransferFrom",
      "outputs": [],
      "stateMutability": "nonpayable",
      "type": "function"
    },
    {
      "inputs": [
        {
          "internalType": "address",
          "name": "from",
          "type": "address"
        },
        {
          "internalType": "address",
          "name": "to",
          "type": "address"
        },
        {
          "internalType": "uint256",
          "name": "tokenId",
          "type": "uint256"
        },
        {
          "internalType": "bytes",
          "name": "_data",
          "type": "bytes"
        }
      ],
      "name": "safeTransferFrom",
      "outputs": [],
      "stateMutability": "nonpayable",
      "type": "function"
    },
    {
      "inputs": [
        {
          "internalType": "address",
          "name": "operator",
          "type": "address"
        },
        {
          "internalType": "bool",
          "name": "approved",
          "type": "bool"
        }
      ],
      "name": "setApprovalForAll",
      "outputs": [],
      "stateMutability": "nonpayable",
      "type": "function"
    },
    {
      "inputs": [
        {
          "internalType": "bytes4",
          "name": "interfaceId",
          "type": "bytes4"
        }
      ],
      "name": "supportsInterface",
      "outputs": [
        {
          "internalType": "bool",
          "name": "",
          "type": "bool"
        }
      ],
      "stateMutability": "view",
      "type": "function"
    },
    {
      "inputs": [],
      "name": "symbol",
      "outputs": [
        {
          "internalType": "string",
          "name": "",
          "type": "string"
        }
      ],
      "stateMutability": "view",
      "type": "function"
    },
    {
      "inputs": [
        {
          "internalType": "uint256",
          "name": "_tokenId",
          "type": "uint256"
        }
      ],
      "name": "tokenURI",
      "outputs": [
        {
          "internalType": "string",
          "name": "",
          "type": "string"
        }
      ],
      "stateMutability": "view",
      "type": "function"
    },
    {
      "inputs": [
        {
          "internalType": "address",
          "name": "from",
          "type": "address"
        },
        {
          "internalType": "address",
          "name": "to",
          "type": "address"
        },
        {
          "internalType": "uint256",
          "name": "tokenId",
          "type": "uint256"
        }
      ],
      "name": "transferFrom",
      "outputs": [],
      "stateMutability": "nonpayable",
      "type": "function"
    }
  ],
  "bytecode": "0x60806040523480156200001157600080fd5b5060405162005bef38038062005bef833981810160405281019062000037919062000ba0565b6040518060400160405280600981526020017f4e46544865726f657300000000000000000000000000000000000000000000008152506040518060400160405280600481526020017f4845524f000000000000000000000000000000000000000000000000000000008152508160009080519060200190620000bb92919062000908565b508060019080519060200190620000d492919062000908565b5050506040518060c0016040528085815260200184815260200183815260200161271081526020018281526020016064815250600660008201518160000190805190602001906200012792919062000908565b5060208201518160010190805190602001906200014692919062000908565b5060408201518160020155606082015181600301556080820151816004015560a08201518160050155905050620002d36040518060600160405280602c815260200162005bc3602c913960066000018054620001a29062000f80565b80601f0160208091040260200160405190810160405280929190818152602001828054620001d09062000f80565b8015620002215780601f10620001f55761010080835404028352916020019162000221565b820191906000526020600020905b8154815290600101906020018083116200020357829003601f168201915b5050505050600660020154600660010180546200023e9062000f80565b80601f01602080910402602001604051908101604052809291908181526020018280546200026c9062000f80565b8015620002bd5780601f106200029157610100808354040283529160200191620002bd565b820191906000526020600020905b8154815290600101906020018083116200029f57829003601f168201915b50505050506200077160201b62001c7a1760201c565b60005b8a518110156200074957600d6040518060e001604052808381526020018d84815181106200032d577f4e487b7100000000000000000000000000000000000000000000000000000000600052603260045260246000fd5b602002602001015181526020018c848151811062000374577f4e487b7100000000000000000000000000000000000000000000000000000000600052603260045260246000fd5b602002602001015181526020018b8481518110620003bb577f4e487b7100000000000000000000000000000000000000000000000000000000600052603260045260246000fd5b602002602001015181526020018a848151811062000402577f4e487b7100000000000000000000000000000000000000000000000000000000600052603260045260246000fd5b6020026020010151815260200189848151811062000449577f4e487b7100000000000000000000000000000000000000000000000000000000600052603260045260246000fd5b6020026020010151815260200188848151811062000490577f4e487b7100000000000000000000000000000000000000000000000000000000600052603260045260246000fd5b60200260200101518152509080600181540180825580915050600190039060005260206000209060070201600090919091909150600082015181600001556020820151816001019080519060200190620004ec92919062000908565b5060408201518160020190805190602001906200050b92919062000908565b50606082015181600301556080820151816004015560a0820151816005015560c0820151816006015550506000600d828154811062000573577f4e487b7100000000000000000000000000000000000000000000000000000000600052603260045260246000fd5b90600052602060002090600702016040518060e001604052908160008201548152602001600182018054620005a89062000f80565b80601f0160208091040260200160405190810160405280929190818152602001828054620005d69062000f80565b8015620006275780601f10620005fb5761010080835404028352916020019162000627565b820191906000526020600020905b8154815290600101906020018083116200060957829003601f168201915b50505050508152602001600282018054620006429062000f80565b80601f0160208091040260200160405190810160405280929190818152602001828054620006709062000f80565b8015620006c15780601f106200069557610100808354040283529160200191620006c1565b820191906000526020600020905b815481529060010190602001808311620006a357829003601f168201915b505050505081526020016003820154815260200160048201548152602001600582015481526020016006820154815250509050620007326040518060600160405280602c815260200162005b97602c9139826020015183606001518460c001516200081d60201b62001d1c1760201c565b508080620007409062000fec565b915050620002d6565b5062000761600c620008c960201b62001dbe1760201c565b50505050505050505050620010f2565b62000817848484846040516024016200078e949392919062000daa565b6040516020818303038152906040527f8d142cdd000000000000000000000000000000000000000000000000000000007bffffffffffffffffffffffffffffffffffffffffffffffffffffffff19166020820180517bffffffffffffffffffffffffffffffffffffffffffffffffffffffff8381831617835250505050620008df60201b60201c565b50505050565b620008c3848484846040516024016200083a949392919062000e0c565b6040516020818303038152906040527fd5cf17d0000000000000000000000000000000000000000000000000000000007bffffffffffffffffffffffffffffffffffffffffffffffffffffffff19166020820180517bffffffffffffffffffffffffffffffffffffffffffffffffffffffff8381831617835250505050620008df60201b60201c565b50505050565b6001816000016000828254019250508190555050565b60008151905060006a636f6e736f6c652e6c6f679050602083016000808483855afa5050505050565b828054620009169062000f80565b90600052602060002090601f0160209004810192826200093a576000855562000986565b82601f106200095557805160ff191683800117855562000986565b8280016001018555821562000986579182015b828111156200098557825182559160200191906001019062000968565b5b50905062000995919062000999565b5090565b5b80821115620009b45760008160009055506001016200099a565b5090565b6000620009cf620009c98462000e90565b62000e67565b90508083825260208201905082856020860282011115620009ef57600080fd5b60005b8581101562000a3e57815167ffffffffffffffff81111562000a1357600080fd5b80860162000a22898262000b5c565b85526020850194506020840193505050600181019050620009f2565b5050509392505050565b600062000a5f62000a598462000ebf565b62000e67565b9050808382526020820190508285602086028201111562000a7f57600080fd5b60005b8581101562000ab3578162000a98888262000b89565b84526020840193506020830192505060018101905062000a82565b5050509392505050565b600062000ad462000ace8462000eee565b62000e67565b90508281526020810184848401111562000aed57600080fd5b62000afa84828562000f4a565b509392505050565b600082601f83011262000b1457600080fd5b815162000b26848260208601620009b8565b91505092915050565b600082601f83011262000b4157600080fd5b815162000b5384826020860162000a48565b91505092915050565b600082601f83011262000b6e57600080fd5b815162000b8084826020860162000abd565b91505092915050565b60008151905062000b9a81620010d8565b92915050565b6000806000806000806000806000806101408b8d03121562000bc157600080fd5b60008b015167ffffffffffffffff81111562000bdc57600080fd5b62000bea8d828e0162000b02565b9a505060208b015167ffffffffffffffff81111562000c0857600080fd5b62000c168d828e0162000b02565b99505060408b015167ffffffffffffffff81111562000c3457600080fd5b62000c428d828e0162000b2f565b98505060608b015167ffffffffffffffff81111562000c6057600080fd5b62000c6e8d828e0162000b2f565b97505060808b015167ffffffffffffffff81111562000c8c57600080fd5b62000c9a8d828e0162000b2f565b96505060a08b015167ffffffffffffffff81111562000cb857600080fd5b62000cc68d828e0162000b2f565b95505060c08b015167ffffffffffffffff81111562000ce457600080fd5b62000cf28d828e0162000b5c565b94505060e08b015167ffffffffffffffff81111562000d1057600080fd5b62000d1e8d828e0162000b5c565b93505061010062000d328d828e0162000b89565b92505061012062000d468d828e0162000b89565b9150509295989b9194979a5092959850565b600062000d658262000f24565b62000d71818562000f2f565b935062000d8381856020860162000f4a565b62000d8e81620010c7565b840191505092915050565b62000da48162000f40565b82525050565b6000608082019050818103600083015262000dc6818762000d58565b9050818103602083015262000ddc818662000d58565b905062000ded604083018562000d99565b818103606083015262000e01818462000d58565b905095945050505050565b6000608082019050818103600083015262000e28818762000d58565b9050818103602083015262000e3e818662000d58565b905062000e4f604083018562000d99565b62000e5e606083018462000d99565b95945050505050565b600062000e7362000e86565b905062000e81828262000fb6565b919050565b6000604051905090565b600067ffffffffffffffff82111562000eae5762000ead62001098565b5b602082029050602081019050919050565b600067ffffffffffffffff82111562000edd5762000edc62001098565b5b602082029050602081019050919050565b600067ffffffffffffffff82111562000f0c5762000f0b62001098565b5b62000f1782620010c7565b9050602081019050919050565b600081519050919050565b600082825260208201905092915050565b6000819050919050565b60005b8381101562000f6a57808201518184015260208101905062000f4d565b8381111562000f7a576000848401525b50505050565b6000600282049050600182168062000f9957607f821691505b6020821081141562000fb05762000faf62001069565b5b50919050565b62000fc182620010c7565b810181811067ffffffffffffffff8211171562000fe35762000fe262001098565b5b80604052505050565b600062000ff98262000f40565b91507fffffffffffffffffffffffffffffffffffffffffffffffffffffffffffffffff8214156200102f576200102e6200103a565b5b600182019050919050565b7f4e487b7100000000000000000000000000000000000000000000000000000000600052601160045260246000fd5b7f4e487b7100000000000000000000000000000000000000000000000000000000600052602260045260246000fd5b7f4e487b7100000000000000000000000000000000000000000000000000000000600052604160045260246000fd5b6000601f19601f8301169050919050565b620010e38162000f40565b8114620010ef57600080fd5b50565b614a9580620011026000396000f3fe608060405234801561001057600080fd5b50600436106101375760003560e01c80637df124a1116100b8578063a9c326791161007c578063a9c3267914610366578063b88d4fde14610389578063b953084e146103a5578063c87b56dd146103c3578063d4f24c5b146103f3578063e985e9c5146103fd57610137565b80637df124a1146102a857806395d89b41146102d857806398da4c95146102f6578063a22cb4651461032c578063a96365451461034857610137565b806323b872dd116100ff57806323b872dd146101f457806342842e0e146102105780636352211e1461022c57806370a082311461025c5780637ba8b8d61461028c57610137565b806301ffc9a71461013c5780630665f9611461016c57806306fdde031461018a578063081812fc146101a8578063095ea7b3146101d8575b600080fd5b610156600480360381019061015191906130cf565b61042d565b60405161016391906139a8565b60405180910390f35b61017461050f565b6040516101819190613d4f565b60405180910390f35b610192610675565b60405161019f91906139c3565b60405180910390f35b6101c260048036038101906101bd9190613121565b610707565b6040516101cf91906138e8565b60405180910390f35b6101f260048036038101906101ed9190613093565b61078c565b005b61020e60048036038101906102099190612f8d565b6108a4565b005b61022a60048036038101906102259190612f8d565b610904565b005b61024660048036038101906102419190613121565b610924565b60405161025391906138e8565b60405180910390f35b61027660048036038101906102719190612f28565b6109d6565b6040516102839190613d93565b60405180910390f35b6102a660048036038101906102a19190613121565b610a8e565b005b6102c260048036038101906102bd9190612f28565b610edd565b6040516102cf9190613d93565b60405180910390f35b6102e0610ef5565b6040516102ed91906139c3565b60405180910390f35b610310600480360381019061030b9190613121565b610f87565b6040516103239796959493929190613dae565b60405180910390f35b61034660048036038101906103419190613057565b6110d9565b005b6103506110ef565b60405161035d9190613d71565b60405180910390f35b61036e6112d1565b60405161038096959493929190613a92565b60405180910390f35b6103a3600480360381019061039e9190612fdc565b61140b565b005b6103ad61146d565b6040516103ba9190613986565b60405180910390f35b6103dd60048036038101906103d89190613121565b611622565b6040516103ea91906139c3565b60405180910390f35b6103fb61185b565b005b61041760048036038101906104129190612f51565b611be6565b60405161042491906139a8565b60405180910390f35b60007f80ac58cd000000000000000000000000000000000000000000000000000000007bffffffffffffffffffffffffffffffffffffffffffffffffffffffff1916827bffffffffffffffffffffffffffffffffffffffffffffffffffffffff191614806104f857507f5b5e139f000000000000000000000000000000000000000000000000000000007bffffffffffffffffffffffffffffffffffffffffffffffffffffffff1916827bffffffffffffffffffffffffffffffffffffffffffffffffffffffff1916145b80610508575061050782611dd4565b5b9050919050565b610517612d41565b60066040518060c001604052908160008201805461053490614102565b80601f016020809104026020016040519081016040528092919081815260200182805461056090614102565b80156105ad5780601f10610582576101008083540402835291602001916105ad565b820191906000526020600020905b81548152906001019060200180831161059057829003601f168201915b505050505081526020016001820180546105c690614102565b80601f01602080910402602001604051908101604052809291908181526020018280546105f290614102565b801561063f5780601f106106145761010080835404028352916020019161063f565b820191906000526020600020905b81548152906001019060200180831161062257829003601f168201915b50505050508152602001600282015481526020016003820154815260200160048201548152602001600582015481525050905090565b60606000805461068490614102565b80601f01602080910402602001604051908101604052809291908181526020018280546106b090614102565b80156106fd5780601f106106d2576101008083540402835291602001916106fd565b820191906000526020600020905b8154815290600101906020018083116106e057829003601f168201915b5050505050905090565b600061071282611e3e565b610751576040517f08c379a000000000000000000000000000000000000000000000000000000000815260040161074890613ccf565b60405180910390fd5b6004600083815260200190815260200160002060009054906101000a900473ffffffffffffffffffffffffffffffffffffffff169050919050565b600061079782610924565b90508073ffffffffffffffffffffffffffffffffffffffff168373ffffffffffffffffffffffffffffffffffffffff161415610808576040517f08c379a00000000000000000000000000000000000000000000000000000000081526004016107ff90613d0f565b60405180910390fd5b8073ffffffffffffffffffffffffffffffffffffffff16610827611eaa565b73ffffffffffffffffffffffffffffffffffffffff161480610856575061085581610850611eaa565b611be6565b5b610895576040517f08c379a000000000000000000000000000000000000000000000000000000000815260040161088c90613c4f565b60405180910390fd5b61089f8383611eb2565b505050565b6108b56108af611eaa565b82611f6b565b6108f4576040517f08c379a00000000000000000000000000000000000000000000000000000000081526004016108eb90613d2f565b60405180910390fd5b6108ff838383612049565b505050565b61091f8383836040518060200160405280600081525061140b565b505050565b6000806002600084815260200190815260200160002060009054906101000a900473ffffffffffffffffffffffffffffffffffffffff169050600073ffffffffffffffffffffffffffffffffffffffff168173ffffffffffffffffffffffffffffffffffffffff1614156109cd576040517f08c379a00000000000000000000000000000000000000000000000000000000081526004016109c490613c8f565b60405180910390fd5b80915050919050565b60008073ffffffffffffffffffffffffffffffffffffffff168273ffffffffffffffffffffffffffffffffffffffff161415610a47576040517f08c379a0000000000000000000000000000000000000000000000000000000008152600401610a3e90613c6f565b60405180910390fd5b600360008373ffffffffffffffffffffffffffffffffffffffff1673ffffffffffffffffffffffffffffffffffffffff168152602001908152602001600020549050919050565b6000610a9a600c6122a5565b9050610aa633826122b3565b6040518060e00160405280838152602001600d8481548110610af1577f4e487b7100000000000000000000000000000000000000000000000000000000600052603260045260246000fd5b90600052602060002090600702016001018054610b0d90614102565b80601f0160208091040260200160405190810160405280929190818152602001828054610b3990614102565b8015610b865780601f10610b5b57610100808354040283529160200191610b86565b820191906000526020600020905b815481529060010190602001808311610b6957829003601f168201915b50505050508152602001600d8481548110610bca577f4e487b7100000000000000000000000000000000000000000000000000000000600052603260045260246000fd5b90600052602060002090600702016002018054610be690614102565b80601f0160208091040260200160405190810160405280929190818152602001828054610c1290614102565b8015610c5f5780601f10610c3457610100808354040283529160200191610c5f565b820191906000526020600020905b815481529060010190602001808311610c4257829003601f168201915b50505050508152602001600d8481548110610ca3577f4e487b7100000000000000000000000000000000000000000000000000000000600052603260045260246000fd5b9060005260206000209060070201600301548152602001600d8481548110610cf4577f4e487b7100000000000000000000000000000000000000000000000000000000600052603260045260246000fd5b9060005260206000209060070201600401548152602001600d8481548110610d45577f4e487b7100000000000000000000000000000000000000000000000000000000600052603260045260246000fd5b9060005260206000209060070201600501548152602001600d8481548110610d96577f4e487b7100000000000000000000000000000000000000000000000000000000600052603260045260246000fd5b906000526020600020906007020160060154815250600e6000838152602001908152602001600020600082015181600001556020820151816001019080519060200190610de4929190612d77565b506040820151816002019080519060200190610e01929190612d77565b50606082015181600301556080820151816004015560a0820151816005015560c08201518160060155905050610e506040518060600160405280603081526020016149f46030913982846122d1565b80600f60003373ffffffffffffffffffffffffffffffffffffffff1673ffffffffffffffffffffffffffffffffffffffff16815260200190815260200160002081905550610e9e600c611dbe565b7f6bc8f3373247c8ae1b280a4fb17ce3419f25f2c6aa1f1676ded5563da138c9b6338284604051610ed19392919061394f565b60405180910390a15050565b600f6020528060005260406000206000915090505481565b606060018054610f0490614102565b80601f0160208091040260200160405190810160405280929190818152602001828054610f3090614102565b8015610f7d5780601f10610f5257610100808354040283529160200191610f7d565b820191906000526020600020905b815481529060010190602001808311610f6057829003601f168201915b5050505050905090565b600e602052806000526040600020600091509050806000015490806001018054610fb090614102565b80601f0160208091040260200160405190810160405280929190818152602001828054610fdc90614102565b80156110295780601f10610ffe57610100808354040283529160200191611029565b820191906000526020600020905b81548152906001019060200180831161100c57829003601f168201915b50505050509080600201805461103e90614102565b80601f016020809104026020016040519081016040528092919081815260200182805461106a90614102565b80156110b75780601f1061108c576101008083540402835291602001916110b7565b820191906000526020600020905b81548152906001019060200180831161109a57829003601f168201915b5050505050908060030154908060040154908060050154908060060154905087565b6110eb6110e4611eaa565b8383612370565b5050565b6110f7612dfd565b6000600f60003373ffffffffffffffffffffffffffffffffffffffff1673ffffffffffffffffffffffffffffffffffffffff16815260200190815260200160002054905060008111156112c057600e60008281526020019081526020016000206040518060e00160405290816000820154815260200160018201805461117c90614102565b80601f01602080910402602001604051908101604052809291908181526020018280546111a890614102565b80156111f55780601f106111ca576101008083540402835291602001916111f5565b820191906000526020600020905b8154815290600101906020018083116111d857829003601f168201915b5050505050815260200160028201805461120e90614102565b80601f016020809104026020016040519081016040528092919081815260200182805461123a90614102565b80156112875780601f1061125c57610100808354040283529160200191611287565b820191906000526020600020905b81548152906001019060200180831161126a57829003601f168201915b505050505081526020016003820154815260200160048201548152602001600582015481526020016006820154815250509150506112ce565b6112c8612dfd565b80925050505b90565b60068060000180546112e290614102565b80601f016020809104026020016040519081016040528092919081815260200182805461130e90614102565b801561135b5780601f106113305761010080835404028352916020019161135b565b820191906000526020600020905b81548152906001019060200180831161133e57829003601f168201915b50505050509080600101805461137090614102565b80601f016020809104026020016040519081016040528092919081815260200182805461139c90614102565b80156113e95780601f106113be576101008083540402835291602001916113e9565b820191906000526020600020905b8154815290600101906020018083116113cc57829003601f168201915b5050505050908060020154908060030154908060040154908060050154905086565b61141c611416611eaa565b83611f6b565b61145b576040517f08c379a000000000000000000000000000000000000000000000000000000000815260040161145290613d2f565b60405180910390fd5b611467848484846124dd565b50505050565b6060600d805480602002602001604051908101604052809291908181526020016000905b8282101561161957838290600052602060002090600702016040518060e0016040529081600082015481526020016001820180546114ce90614102565b80601f01602080910402602001604051908101604052809291908181526020018280546114fa90614102565b80156115475780601f1061151c57610100808354040283529160200191611547565b820191906000526020600020905b81548152906001019060200180831161152a57829003601f168201915b5050505050815260200160028201805461156090614102565b80601f016020809104026020016040519081016040528092919081815260200182805461158c90614102565b80156115d95780601f106115ae576101008083540402835291602001916115d9565b820191906000526020600020905b8154815290600101906020018083116115bc57829003601f168201915b5050505050815260200160038201548152602001600482015481526020016005820154815260200160068201548152505081526020019060010190611491565b50505050905090565b60606000600e60008481526020019081526020016000206040518060e00160405290816000820154815260200160018201805461165e90614102565b80601f016020809104026020016040519081016040528092919081815260200182805461168a90614102565b80156116d75780601f106116ac576101008083540402835291602001916116d7565b820191906000526020600020905b8154815290600101906020018083116116ba57829003601f168201915b505050505081526020016002820180546116f090614102565b80601f016020809104026020016040519081016040528092919081815260200182805461171c90614102565b80156117695780601f1061173e57610100808354040283529160200191611769565b820191906000526020600020905b81548152906001019060200180831161174c57829003601f168201915b50505050508152602001600382015481526020016004820154815260200160058201548152602001600682015481525050905060006117ab8260600151612539565b905060006117bc8360800151612539565b905060006117cd8460a00151612539565b905060006117de8560c00151612539565b9050600061182686602001516117f38a612539565b8860400151888888886040516020016118129796959493929190613809565b6040516020818303038152906040526126e6565b905060008160405160200161183b91906138c6565b604051602081830303815290604052905080975050505050505050919050565b6000600f60003373ffffffffffffffffffffffffffffffffffffffff1673ffffffffffffffffffffffffffffffffffffffff1681526020019081526020016000205490506000600e6000838152602001908152602001600020905061196e6040518060600160405280603c8152602001614a24603c91398260010180546118e190614102565b80601f016020809104026020016040519081016040528092919081815260200182805461190d90614102565b801561195a5780601f1061192f5761010080835404028352916020019161195a565b820191906000526020600020905b81548152906001019060200180831161193d57829003601f168201915b505050505083600301548460050154611d1c565b611a466040518060400160405280601b81526020017f426f73732025732068617320257320485020616e642025732041440000000000815250600660000180546119b790614102565b80601f01602080910402602001604051908101604052809291908181526020018280546119e390614102565b8015611a305780601f10611a0557610100808354040283529160200191611a30565b820191906000526020600020905b815481529060010190602001808311611a1357829003601f168201915b5050505050600660020154600660040154611d1c565b6000816003015411611a8d576040517f08c379a0000000000000000000000000000000000000000000000000000000008152600401611a8490613b6f565b60405180910390fd5b600060066002015411611ad5576040517f08c379a0000000000000000000000000000000000000000000000000000000008152600401611acc90613b8f565b60405180910390fd5b80600501546006600201541015611af6576000600660020181905550611b15565b8060050154600660020154611b0b9190614018565b6006600201819055505b60066004015481600301541015611b355760008160030181905550611b53565b6006600401548160030154611b4a9190614018565b81600301819055505b611b7a604051806060016040528060258152602001614967602591396006600201546128a4565b611ba06040518060600160405280602881526020016149cc6028913982600301546128a4565b7f838ab28464562786a6c4ab2311964b82fa60bd9b14aa7e856af1f3f18d41a4146006600201548260030154604051611bda929190613e2b565b60405180910390a15050565b6000600560008473ffffffffffffffffffffffffffffffffffffffff1673ffffffffffffffffffffffffffffffffffffffff16815260200190815260200160002060008373ffffffffffffffffffffffffffffffffffffffff1673ffffffffffffffffffffffffffffffffffffffff16815260200190815260200160002060009054906101000a900460ff16905092915050565b611d1684848484604051602401611c9494939291906139e5565b6040516020818303038152906040527f8d142cdd000000000000000000000000000000000000000000000000000000007bffffffffffffffffffffffffffffffffffffffffffffffffffffffff19166020820180517bffffffffffffffffffffffffffffffffffffffffffffffffffffffff8381831617835250505050612940565b50505050565b611db884848484604051602401611d369493929190613a3f565b6040516020818303038152906040527fd5cf17d0000000000000000000000000000000000000000000000000000000007bffffffffffffffffffffffffffffffffffffffffffffffffffffffff19166020820180517bffffffffffffffffffffffffffffffffffffffffffffffffffffffff8381831617835250505050612940565b50505050565b6001816000016000828254019250508190555050565b60007f01ffc9a7000000000000000000000000000000000000000000000000000000007bffffffffffffffffffffffffffffffffffffffffffffffffffffffff1916827bffffffffffffffffffffffffffffffffffffffffffffffffffffffff1916149050919050565b60008073ffffffffffffffffffffffffffffffffffffffff166002600084815260200190815260200160002060009054906101000a900473ffffffffffffffffffffffffffffffffffffffff1673ffffffffffffffffffffffffffffffffffffffff1614159050919050565b600033905090565b816004600083815260200190815260200160002060006101000a81548173ffffffffffffffffffffffffffffffffffffffff021916908373ffffffffffffffffffffffffffffffffffffffff160217905550808273ffffffffffffffffffffffffffffffffffffffff16611f2583610924565b73ffffffffffffffffffffffffffffffffffffffff167f8c5be1e5ebec7d5bd14f71427d1e84f3dd0314c0f7b2291e5b200ac8c7c3b92560405160405180910390a45050565b6000611f7682611e3e565b611fb5576040517f08c379a0000000000000000000000000000000000000000000000000000000008152600401611fac90613c2f565b60405180910390fd5b6000611fc083610924565b90508073ffffffffffffffffffffffffffffffffffffffff168473ffffffffffffffffffffffffffffffffffffffff16148061202f57508373ffffffffffffffffffffffffffffffffffffffff1661201784610707565b73ffffffffffffffffffffffffffffffffffffffff16145b80612040575061203f8185611be6565b5b91505092915050565b8273ffffffffffffffffffffffffffffffffffffffff1661206982610924565b73ffffffffffffffffffffffffffffffffffffffff16146120bf576040517f08c379a00000000000000000000000000000000000000000000000000000000081526004016120b690613cef565b60405180910390fd5b600073ffffffffffffffffffffffffffffffffffffffff168273ffffffffffffffffffffffffffffffffffffffff16141561212f576040517f08c379a000000000000000000000000000000000000000000000000000000000815260040161212690613bef565b60405180910390fd5b61213a838383612969565b612145600082611eb2565b6001600360008573ffffffffffffffffffffffffffffffffffffffff1673ffffffffffffffffffffffffffffffffffffffff16815260200190815260200160002060008282546121959190614018565b925050819055506001600360008473ffffffffffffffffffffffffffffffffffffffff1673ffffffffffffffffffffffffffffffffffffffff16815260200190815260200160002060008282546121ec9190613f37565b92505081905550816002600083815260200190815260200160002060006101000a81548173ffffffffffffffffffffffffffffffffffffffff021916908373ffffffffffffffffffffffffffffffffffffffff160217905550808273ffffffffffffffffffffffffffffffffffffffff168473ffffffffffffffffffffffffffffffffffffffff167fddf252ad1be2c89b69c2b068fc378daa952ba7f163c4a11628f55a4df523b3ef60405160405180910390a4505050565b600081600001549050919050565b6122cd82826040518060200160405280600081525061296e565b5050565b61236b8383836040516024016122e993929190613b31565b6040516020818303038152906040527f969cdd03000000000000000000000000000000000000000000000000000000007bffffffffffffffffffffffffffffffffffffffffffffffffffffffff19166020820180517bffffffffffffffffffffffffffffffffffffffffffffffffffffffff8381831617835250505050612940565b505050565b8173ffffffffffffffffffffffffffffffffffffffff168373ffffffffffffffffffffffffffffffffffffffff1614156123df576040517f08c379a00000000000000000000000000000000000000000000000000000000081526004016123d690613c0f565b60405180910390fd5b80600560008573ffffffffffffffffffffffffffffffffffffffff1673ffffffffffffffffffffffffffffffffffffffff16815260200190815260200160002060008473ffffffffffffffffffffffffffffffffffffffff1673ffffffffffffffffffffffffffffffffffffffff16815260200190815260200160002060006101000a81548160ff0219169083151502179055508173ffffffffffffffffffffffffffffffffffffffff168373ffffffffffffffffffffffffffffffffffffffff167f17307eab39ab6107e8899845ad3d59bd9653f200f220920489ca2b5937696c31836040516124d091906139a8565b60405180910390a3505050565b6124e8848484612049565b6124f4848484846129c9565b612533576040517f08c379a000000000000000000000000000000000000000000000000000000000815260040161252a90613baf565b60405180910390fd5b50505050565b60606000821415612581576040518060400160405280600181526020017f300000000000000000000000000000000000000000000000000000000000000081525090506126e1565b600082905060005b600082146125b357808061259c90614165565b915050600a826125ac9190613f8d565b9150612589565b60008167ffffffffffffffff8111156125f5577f4e487b7100000000000000000000000000000000000000000000000000000000600052604160045260246000fd5b6040519080825280601f01601f1916602001820160405280156126275781602001600182028036833780820191505090505b5090505b600085146126da576001826126409190614018565b9150600a8561264f91906141ae565b603061265b9190613f37565b60f81b818381518110612697577f4e487b7100000000000000000000000000000000000000000000000000000000600052603260045260246000fd5b60200101907effffffffffffffffffffffffffffffffffffffffffffffffffffffffffffff1916908160001a905350600a856126d39190613f8d565b945061262b565b8093505050505b919050565b6060600082519050600081141561270f576040518060200160405280600081525091505061289f565b600060036002836127209190613f37565b61272a9190613f8d565b60046127369190613fbe565b905060006020826127479190613f37565b67ffffffffffffffff811115612786577f4e487b7100000000000000000000000000000000000000000000000000000000600052604160045260246000fd5b6040519080825280601f01601f1916602001820160405280156127b85781602001600182028036833780820191505090505b509050600060405180606001604052806040815260200161498c604091399050600181016020830160005b8681101561285c5760038101905062ffffff818a015116603f8160121c168401518060081b905060ff603f83600c1c1686015116810190508060081b905060ff603f8360061c1686015116810190508060081b905060ff603f831686015116810190508060e01b905080845260048401935050506127e3565b506003860660018114612876576002811461288657612891565b613d3d60f01b6002830352612891565b603d60f81b60018303525b508484525050819450505050505b919050565b61293c82826040516024016128ba929190613b01565b6040516020818303038152906040527f9710a9d0000000000000000000000000000000000000000000000000000000007bffffffffffffffffffffffffffffffffffffffffffffffffffffffff19166020820180517bffffffffffffffffffffffffffffffffffffffffffffffffffffffff8381831617835250505050612940565b5050565b60008151905060006a636f6e736f6c652e6c6f679050602083016000808483855afa5050505050565b505050565b6129788383612b60565b61298560008484846129c9565b6129c4576040517f08c379a00000000000000000000000000000000000000000000000000000000081526004016129bb90613baf565b60405180910390fd5b505050565b60006129ea8473ffffffffffffffffffffffffffffffffffffffff16612d2e565b15612b53578373ffffffffffffffffffffffffffffffffffffffff1663150b7a02612a13611eaa565b8786866040518563ffffffff1660e01b8152600401612a359493929190613903565b602060405180830381600087803b158015612a4f57600080fd5b505af1925050508015612a8057506040513d601f19601f82011682018060405250810190612a7d91906130f8565b60015b612b03573d8060008114612ab0576040519150601f19603f3d011682016040523d82523d6000602084013e612ab5565b606091505b50600081511415612afb576040517f08c379a0000000000000000000000000000000000000000000000000000000008152600401612af290613baf565b60405180910390fd5b805181602001fd5b63150b7a0260e01b7bffffffffffffffffffffffffffffffffffffffffffffffffffffffff1916817bffffffffffffffffffffffffffffffffffffffffffffffffffffffff191614915050612b58565b600190505b949350505050565b600073ffffffffffffffffffffffffffffffffffffffff168273ffffffffffffffffffffffffffffffffffffffff161415612bd0576040517f08c379a0000000000000000000000000000000000000000000000000000000008152600401612bc790613caf565b60405180910390fd5b612bd981611e3e565b15612c19576040517f08c379a0000000000000000000000000000000000000000000000000000000008152600401612c1090613bcf565b60405180910390fd5b612c2560008383612969565b6001600360008473ffffffffffffffffffffffffffffffffffffffff1673ffffffffffffffffffffffffffffffffffffffff1681526020019081526020016000206000828254612c759190613f37565b92505081905550816002600083815260200190815260200160002060006101000a81548173ffffffffffffffffffffffffffffffffffffffff021916908373ffffffffffffffffffffffffffffffffffffffff160217905550808273ffffffffffffffffffffffffffffffffffffffff16600073ffffffffffffffffffffffffffffffffffffffff167fddf252ad1be2c89b69c2b068fc378daa952ba7f163c4a11628f55a4df523b3ef60405160405180910390a45050565b600080823b905060008111915050919050565b6040518060c001604052806060815260200160608152602001600081526020016000815260200160008152602001600081525090565b828054612d8390614102565b90600052602060002090601f016020900481019282612da55760008555612dec565b82601f10612dbe57805160ff1916838001178555612dec565b82800160010185558215612dec579182015b82811115612deb578251825591602001919060010190612dd0565b5b509050612df99190612e3a565b5090565b6040518060e00160405280600081526020016060815260200160608152602001600081526020016000815260200160008152602001600081525090565b5b80821115612e53576000816000905550600101612e3b565b5090565b6000612e6a612e6584613e79565b613e54565b905082815260208101848484011115612e8257600080fd5b612e8d8482856140c0565b509392505050565b600081359050612ea48161490a565b92915050565b600081359050612eb981614921565b92915050565b600081359050612ece81614938565b92915050565b600081519050612ee381614938565b92915050565b600082601f830112612efa57600080fd5b8135612f0a848260208601612e57565b91505092915050565b600081359050612f228161494f565b92915050565b600060208284031215612f3a57600080fd5b6000612f4884828501612e95565b91505092915050565b60008060408385031215612f6457600080fd5b6000612f7285828601612e95565b9250506020612f8385828601612e95565b9150509250929050565b600080600060608486031215612fa257600080fd5b6000612fb086828701612e95565b9350506020612fc186828701612e95565b9250506040612fd286828701612f13565b9150509250925092565b60008060008060808587031215612ff257600080fd5b600061300087828801612e95565b945050602061301187828801612e95565b935050604061302287828801612f13565b925050606085013567ffffffffffffffff81111561303f57600080fd5b61304b87828801612ee9565b91505092959194509250565b6000806040838503121561306a57600080fd5b600061307885828601612e95565b925050602061308985828601612eaa565b9150509250929050565b600080604083850312156130a657600080fd5b60006130b485828601612e95565b92505060206130c585828601612f13565b9150509250929050565b6000602082840312156130e157600080fd5b60006130ef84828501612ebf565b91505092915050565b60006020828403121561310a57600080fd5b600061311884828501612ed4565b91505092915050565b60006020828403121561313357600080fd5b600061314184828501612f13565b91505092915050565b600061315683836136a5565b905092915050565b6131678161404c565b82525050565b600061317882613eba565b6131828185613ee8565b93508360208202850161319485613eaa565b8060005b858110156131d057848403895281516131b1858261314a565b94506131bc83613edb565b925060208a01995050600181019050613198565b50829750879550505050505092915050565b6131eb8161405e565b82525050565b60006131fc82613ec5565b6132068185613ef9565b93506132168185602086016140cf565b61321f8161429b565b840191505092915050565b600061323582613ed0565b61323f8185613f0a565b935061324f8185602086016140cf565b6132588161429b565b840191505092915050565b600061326e82613ed0565b6132788185613f1b565b93506132888185602086016140cf565b6132918161429b565b840191505092915050565b60006132a782613ed0565b6132b18185613f2c565b93506132c18185602086016140cf565b80840191505092915050565b60006132da600b83613f2c565b91506132e5826142ac565b600b82019050919050565b60006132fd602c83613f1b565b9150613308826142d5565b604082019050919050565b6000613320602c83613f1b565b915061332b82614324565b604082019050919050565b6000613343602c83613f2c565b915061334e82614373565b602c82019050919050565b6000613366603283613f1b565b9150613371826143c2565b604082019050919050565b6000613389601c83613f1b565b915061339482614411565b602082019050919050565b60006133ac604983613f2c565b91506133b78261443a565b604982019050919050565b60006133cf602483613f1b565b91506133da826144af565b604082019050919050565b60006133f2601983613f1b565b91506133fd826144fe565b602082019050919050565b6000613415600f83613f2c565b915061342082614527565b600f82019050919050565b6000613438602c83613f1b565b915061344382614550565b604082019050919050565b600061345b603883613f1b565b91506134668261459f565b604082019050919050565b600061347e602a83613f1b565b9150613489826145ee565b604082019050919050565b60006134a1602983613f1b565b91506134ac8261463d565b604082019050919050565b60006134c4600483613f2c565b91506134cf8261468c565b600482019050919050565b60006134e7602083613f1b565b91506134f2826146b5565b602082019050919050565b600061350a603c83613f2c565b9150613515826146de565b603c82019050919050565b600061352d602c83613f1b565b91506135388261472d565b604082019050919050565b6000613550602983613f1b565b915061355b8261477c565b604082019050919050565b6000613573600a83613f2c565b915061357e826147cb565b600a82019050919050565b6000613596602183613f1b565b91506135a1826147f4565b604082019050919050565b60006135b9602d83613f2c565b91506135c482614843565b602d82019050919050565b60006135dc601d83613f2c565b91506135e782614892565b601d82019050919050565b60006135ff603183613f1b565b915061360a826148bb565b604082019050919050565b600060c0830160008301518482036000860152613632828261322a565b9150506020830151848203602086015261364c828261322a565b915050604083015161366160408601826137eb565b50606083015161367460608601826137eb565b50608083015161368760808601826137eb565b5060a083015161369a60a08601826137eb565b508091505092915050565b600060e0830160008301516136bd60008601826137eb565b50602083015184820360208601526136d5828261322a565b915050604083015184820360408601526136ef828261322a565b915050606083015161370460608601826137eb565b50608083015161371760808601826137eb565b5060a083015161372a60a08601826137eb565b5060c083015161373d60c08601826137eb565b508091505092915050565b600060e08301600083015161376060008601826137eb565b5060208301518482036020860152613778828261322a565b91505060408301518482036040860152613792828261322a565b91505060608301516137a760608601826137eb565b5060808301516137ba60808601826137eb565b5060a08301516137cd60a08601826137eb565b5060c08301516137e060c08601826137eb565b508091505092915050565b6137f4816140b6565b82525050565b613803816140b6565b82525050565b600061381482613566565b9150613820828a61329c565b915061382b826132cd565b9150613837828961329c565b91506138428261339f565b915061384e828861329c565b9150613859826134fd565b9150613865828761329c565b915061387082613408565b915061387c828661329c565b915061388782613336565b9150613893828561329c565b915061389e826135ac565b91506138aa828461329c565b91506138b5826134b7565b915081905098975050505050505050565b60006138d1826135cf565b91506138dd828461329c565b915081905092915050565b60006020820190506138fd600083018461315e565b92915050565b6000608082019050613918600083018761315e565b613925602083018661315e565b61393260408301856137fa565b818103606083015261394481846131f1565b905095945050505050565b6000606082019050613964600083018661315e565b61397160208301856137fa565b61397e60408301846137fa565b949350505050565b600060208201905081810360008301526139a0818461316d565b905092915050565b60006020820190506139bd60008301846131e2565b92915050565b600060208201905081810360008301526139dd8184613263565b905092915050565b600060808201905081810360008301526139ff8187613263565b90508181036020830152613a138186613263565b9050613a2260408301856137fa565b8181036060830152613a348184613263565b905095945050505050565b60006080820190508181036000830152613a598187613263565b90508181036020830152613a6d8186613263565b9050613a7c60408301856137fa565b613a8960608301846137fa565b95945050505050565b600060c0820190508181036000830152613aac8189613263565b90508181036020830152613ac08188613263565b9050613acf60408301876137fa565b613adc60608301866137fa565b613ae960808301856137fa565b613af660a08301846137fa565b979650505050505050565b60006040820190508181036000830152613b1b8185613263565b9050613b2a60208301846137fa565b9392505050565b60006060820190508181036000830152613b4b8186613263565b9050613b5a60208301856137fa565b613b6760408301846137fa565b949350505050565b60006020820190508181036000830152613b88816132f0565b9050919050565b60006020820190508181036000830152613ba881613313565b9050919050565b60006020820190508181036000830152613bc881613359565b9050919050565b60006020820190508181036000830152613be88161337c565b9050919050565b60006020820190508181036000830152613c08816133c2565b9050919050565b60006020820190508181036000830152613c28816133e5565b9050919050565b60006020820190508181036000830152613c488161342b565b9050919050565b60006020820190508181036000830152613c688161344e565b9050919050565b60006020820190508181036000830152613c8881613471565b9050919050565b60006020820190508181036000830152613ca881613494565b9050919050565b60006020820190508181036000830152613cc8816134da565b9050919050565b60006020820190508181036000830152613ce881613520565b9050919050565b60006020820190508181036000830152613d0881613543565b9050919050565b60006020820190508181036000830152613d2881613589565b9050919050565b60006020820190508181036000830152613d48816135f2565b9050919050565b60006020820190508181036000830152613d698184613615565b905092915050565b60006020820190508181036000830152613d8b8184613748565b905092915050565b6000602082019050613da860008301846137fa565b92915050565b600060e082019050613dc3600083018a6137fa565b8181036020830152613dd58189613263565b90508181036040830152613de98188613263565b9050613df860608301876137fa565b613e0560808301866137fa565b613e1260a08301856137fa565b613e1f60c08301846137fa565b98975050505050505050565b6000604082019050613e4060008301856137fa565b613e4d60208301846137fa565b9392505050565b6000613e5e613e6f565b9050613e6a8282614134565b919050565b6000604051905090565b600067ffffffffffffffff821115613e9457613e9361426c565b5b613e9d8261429b565b9050602081019050919050565b6000819050602082019050919050565b600081519050919050565b600081519050919050565b600081519050919050565b6000602082019050919050565b600082825260208201905092915050565b600082825260208201905092915050565b600082825260208201905092915050565b600082825260208201905092915050565b600081905092915050565b6000613f42826140b6565b9150613f4d836140b6565b9250827fffffffffffffffffffffffffffffffffffffffffffffffffffffffffffffffff03821115613f8257613f816141df565b5b828201905092915050565b6000613f98826140b6565b9150613fa3836140b6565b925082613fb357613fb261420e565b5b828204905092915050565b6000613fc9826140b6565b9150613fd4836140b6565b9250817fffffffffffffffffffffffffffffffffffffffffffffffffffffffffffffffff048311821515161561400d5761400c6141df565b5b828202905092915050565b6000614023826140b6565b915061402e836140b6565b925082821015614041576140406141df565b5b828203905092915050565b600061405782614096565b9050919050565b60008115159050919050565b60007fffffffff0000000000000000000000000000000000000000000000000000000082169050919050565b600073ffffffffffffffffffffffffffffffffffffffff82169050919050565b6000819050919050565b82818337600083830152505050565b60005b838110156140ed5780820151818401526020810190506140d2565b838111156140fc576000848401525b50505050565b6000600282049050600182168061411a57607f821691505b6020821081141561412e5761412d61423d565b5b50919050565b61413d8261429b565b810181811067ffffffffffffffff8211171561415c5761415b61426c565b5b80604052505050565b6000614170826140b6565b91507fffffffffffffffffffffffffffffffffffffffffffffffffffffffffffffffff8214156141a3576141a26141df565b5b600182019050919050565b60006141b9826140b6565b91506141c4836140b6565b9250826141d4576141d361420e565b5b828206905092915050565b7f4e487b7100000000000000000000000000000000000000000000000000000000600052601160045260246000fd5b7f4e487b7100000000000000000000000000000000000000000000000000000000600052601260045260246000fd5b7f4e487b7100000000000000000000000000000000000000000000000000000000600052602260045260246000fd5b7f4e487b7100000000000000000000000000000000000000000000000000000000600052604160045260246000fd5b6000601f19601f8301169050919050565b7f202d2d204e465420233a20000000000000000000000000000000000000000000600082015250565b7f4572726f723a20636861726163746572206d757374206861766520485020746f60008201527f2061747461636b20626f73730000000000000000000000000000000000000000602082015250565b7f4572726f723a20626f7373206d757374206861766520485020746f206174746160008201527f636b206368617261637465720000000000000000000000000000000000000000602082015250565b7f7d2c207b2274726169745f74797065223a202241747461636b2044616d61676560008201527f222c202276616c7565223a200000000000000000000000000000000000000000602082015250565b7f4552433732313a207472616e7366657220746f206e6f6e20455243373231526560008201527f63656976657220696d706c656d656e7465720000000000000000000000000000602082015250565b7f4552433732313a20746f6b656e20616c7265616479206d696e74656400000000600082015250565b7f222c20226465736372697074696f6e223a20225468697320697320616e204e4660008201527f542074686174206c6574732070656f706c652066756e20706c61792e222c202260208201527f696d616765223a20220000000000000000000000000000000000000000000000604082015250565b7f4552433732313a207472616e7366657220746f20746865207a65726f2061646460008201527f7265737300000000000000000000000000000000000000000000000000000000602082015250565b7f4552433732313a20617070726f766520746f2063616c6c657200000000000000600082015250565b7f2c20226d61785f76616c7565223a200000000000000000000000000000000000600082015250565b7f4552433732313a206f70657261746f7220717565727920666f72206e6f6e657860008201527f697374656e7420746f6b656e0000000000000000000000000000000000000000602082015250565b7f4552433732313a20617070726f76652063616c6c6572206973206e6f74206f7760008201527f6e6572206e6f7220617070726f76656420666f7220616c6c0000000000000000602082015250565b7f4552433732313a2062616c616e636520717565727920666f7220746865207a6560008201527f726f206164647265737300000000000000000000000000000000000000000000602082015250565b7f4552433732313a206f776e657220717565727920666f72206e6f6e657869737460008201527f656e7420746f6b656e0000000000000000000000000000000000000000000000602082015250565b7f7d205d7d00000000000000000000000000000000000000000000000000000000600082015250565b7f4552433732313a206d696e7420746f20746865207a65726f2061646472657373600082015250565b7f222c202261747472696275746573223a205b207b2274726169745f747970652260008201527f3a20224865616c746820506f696e7473222c202276616c7565223a2000000000602082015250565b7f4552433732313a20617070726f76656420717565727920666f72206e6f6e657860008201527f697374656e7420746f6b656e0000000000000000000000000000000000000000602082015250565b7f4552433732313a207472616e73666572206f6620746f6b656e2074686174206960008201527f73206e6f74206f776e0000000000000000000000000000000000000000000000602082015250565b7f7b226e616d65223a202200000000000000000000000000000000000000000000600082015250565b7f4552433732313a20617070726f76616c20746f2063757272656e74206f776e6560008201527f7200000000000000000000000000000000000000000000000000000000000000602082015250565b7f7d2c207b2274726169745f74797065223a2022446566656e636520506f696e7460008201527f73222c202276616c7565223a2000000000000000000000000000000000000000602082015250565b7f646174613a6170706c69636174696f6e2f6a736f6e3b6261736536342c000000600082015250565b7f4552433732313a207472616e736665722063616c6c6572206973206e6f74206f60008201527f776e6572206e6f7220617070726f766564000000000000000000000000000000602082015250565b6149138161404c565b811461491e57600080fd5b50565b61492a8161405e565b811461493557600080fd5b50565b6149418161406a565b811461494c57600080fd5b50565b614958816140b6565b811461496357600080fd5b5056fe506c617965722061747461636b656420626f73732e204e657720626f73732068703a2025734142434445464748494a4b4c4d4e4f505152535455565758595a6162636465666768696a6b6c6d6e6f707172737475767778797a303132333435363738392b2f426f73732061747461636b656420706c617965722e204e657720706c617965722068703a2025730a4d696e746564204e4654207769746820746f6b656e496420257320616e6420636861726163746572496e6465782025730a506c6179657220772f206368617261637465722025732061626f757420746f2061747461636b2e2048617320257320485020616e64202573204144a26469706673582212207f2daafd3d3f8575e047b8d295e3ef80672d88d535f9f43877689f6e4c9944fb64736f6c63430008040033446f6e6520696e697469616c697a696e672025732077697468202d3e2048503a2025732c2044463a2025732e446f6e6520696e697469616c697a696e6720626f737320257320776974682048502025732c20696d67202573",
  "linkReferences": {},
  "deployedLinkReferences": {}
}