{
  "_format": "hh-sol-artifact-1",
  "contractName": "EpicGame",
  "sourceName": "contracts/EpicGame.sol",
  "abi": [
    {
      "inputs": [
        {
          "internalType": "string[]",
          "name": "charNames",
          "type": "string[]"
        },
        {
          "internalType": "string[]",
          "name": "charImageURIs",
          "type": "string[]"
        },
        {
          "internalType": "uint256[]",
          "name": "charHp",
          "type": "uint256[]"
        },
        {
          "internalType": "uint256[]",
          "name": "maxHp",
          "type": "uint256[]"
        },
        {
          "internalType": "uint256[]",
          "name": "charAttackDamage",
          "type": "uint256[]"
        },
        {
          "internalType": "uint256[]",
          "name": "charDefence",
          "type": "uint256[]"
        },
        {
          "internalType": "string",
          "name": "bossName",
          "type": "string"
        },
        {
          "internalType": "string",
          "name": "bossImageURI",
          "type": "string"
        },
        {
          "internalType": "uint256",
          "name": "bossHp",
          "type": "uint256"
        },
        {
          "internalType": "uint256",
          "name": "bossAttackDamage",
          "type": "uint256"
        }
      ],
      "stateMutability": "nonpayable",
      "type": "constructor"
    },
    {
      "anonymous": false,
      "inputs": [
        {
          "indexed": true,
          "internalType": "address",
          "name": "owner",
          "type": "address"
        },
        {
          "indexed": true,
          "internalType": "address",
          "name": "approved",
          "type": "address"
        },
        {
          "indexed": true,
          "internalType": "uint256",
          "name": "tokenId",
          "type": "uint256"
        }
      ],
      "name": "Approval",
      "type": "event"
    },
    {
      "anonymous": false,
      "inputs": [
        {
          "indexed": true,
          "internalType": "address",
          "name": "owner",
          "type": "address"
        },
        {
          "indexed": true,
          "internalType": "address",
          "name": "operator",
          "type": "address"
        },
        {
          "indexed": false,
          "internalType": "bool",
          "name": "approved",
          "type": "bool"
        }
      ],
      "name": "ApprovalForAll",
      "type": "event"
    },
    {
      "anonymous": false,
      "inputs": [
        {
          "indexed": false,
          "internalType": "uint256",
          "name": "newBossHp",
          "type": "uint256"
        },
        {
          "indexed": false,
          "internalType": "uint256",
          "name": "newPlayerHp",
          "type": "uint256"
        }
      ],
      "name": "AttackComplete",
      "type": "event"
    },
    {
      "anonymous": false,
      "inputs": [
        {
          "indexed": false,
          "internalType": "address",
          "name": "sender",
          "type": "address"
        },
        {
          "indexed": false,
          "internalType": "uint256",
          "name": "tokenId",
          "type": "uint256"
        },
        {
          "indexed": false,
          "internalType": "uint256",
          "name": "characterIndex",
          "type": "uint256"
        }
      ],
      "name": "CharacterNFTMined",
      "type": "event"
    },
    {
      "anonymous": false,
      "inputs": [
        {
          "indexed": true,
          "internalType": "address",
          "name": "from",
          "type": "address"
        },
        {
          "indexed": true,
          "internalType": "address",
          "name": "to",
          "type": "address"
        },
        {
          "indexed": true,
          "internalType": "uint256",
          "name": "tokenId",
          "type": "uint256"
        }
      ],
      "name": "Transfer",
      "type": "event"
    },
    {
      "inputs": [
        {
          "internalType": "address",
          "name": "to",
          "type": "address"
        },
        {
          "internalType": "uint256",
          "name": "tokenId",
          "type": "uint256"
        }
      ],
      "name": "approve",
      "outputs": [],
      "stateMutability": "nonpayable",
      "type": "function"
    },
    {
      "inputs": [],
      "name": "attackBoss",
      "outputs": [],
      "stateMutability": "nonpayable",
      "type": "function"
    },
    {
      "inputs": [
        {
          "internalType": "address",
          "name": "owner",
          "type": "address"
        }
      ],
      "name": "balanceOf",
      "outputs": [
        {
          "internalType": "uint256",
          "name": "",
          "type": "uint256"
        }
      ],
      "stateMutability": "view",
      "type": "function"
    },
    {
      "inputs": [],
      "name": "bigBoss",
      "outputs": [
        {
          "internalType": "string",
          "name": "name",
          "type": "string"
        },
        {
          "internalType": "string",
          "name": "imageURI",
          "type": "string"
        },
        {
          "internalType": "uint256",
          "name": "hp",
          "type": "uint256"
        },
        {
          "internalType": "uint256",
          "name": "maxHp",
          "type": "uint256"
        },
        {
          "internalType": "uint256",
          "name": "attackDamage",
          "type": "uint256"
        },
        {
          "internalType": "uint256",
          "name": "defence",
          "type": "uint256"
        }
      ],
      "stateMutability": "view",
      "type": "function"
    },
    {
      "inputs": [],
      "name": "checkIfUserHaveNFT",
      "outputs": [
        {
          "components": [
            {
              "internalType": "uint256",
              "name": "charIndex",
              "type": "uint256"
            },
            {
              "internalType": "string",
              "name": "name",
              "type": "string"
            },
            {
              "internalType": "string",
              "name": "imageURI",
              "type": "string"
            },
            {
              "internalType": "uint256",
              "name": "hp",
              "type": "uint256"
            },
            {
              "internalType": "uint256",
              "name": "maxHp",
              "type": "uint256"
            },
            {
              "internalType": "uint256",
              "name": "attackDamage",
              "type": "uint256"
            },
            {
              "internalType": "uint256",
              "name": "defence",
              "type": "uint256"
            }
          ],
          "internalType": "struct EpicGame.CharAttributes",
          "name": "",
          "type": "tuple"
        }
      ],
      "stateMutability": "view",
      "type": "function"
    },
    {
      "inputs": [
        {
          "internalType": "uint256",
          "name": "_charIndex",
          "type": "uint256"
        }
      ],
      "name": "donateHpCharacter",
      "outputs": [],
      "stateMutability": "nonpayable",
      "type": "function"
    },
    {
      "inputs": [],
      "name": "getAllDefaultCharacters",
      "outputs": [
        {
          "components": [
            {
              "internalType": "uint256",
              "name": "charIndex",
              "type": "uint256"
            },
            {
              "internalType": "string",
              "name": "name",
              "type": "string"
            },
            {
              "internalType": "string",
              "name": "imageURI",
              "type": "string"
            },
            {
              "internalType": "uint256",
              "name": "hp",
              "type": "uint256"
            },
            {
              "internalType": "uint256",
              "name": "maxHp",
              "type": "uint256"
            },
            {
              "internalType": "uint256",
              "name": "attackDamage",
              "type": "uint256"
            },
            {
              "internalType": "uint256",
              "name": "defence",
              "type": "uint256"
            }
          ],
          "internalType": "struct EpicGame.CharAttributes[]",
          "name": "",
          "type": "tuple[]"
        }
      ],
      "stateMutability": "view",
      "type": "function"
    },
    {
      "inputs": [
        {
          "internalType": "uint256",
          "name": "tokenId",
          "type": "uint256"
        }
      ],
      "name": "getApproved",
      "outputs": [
        {
          "internalType": "address",
          "name": "",
          "type": "address"
        }
      ],
      "stateMutability": "view",
      "type": "function"
    },
    {
      "inputs": [],
      "name": "getBigBoss",
      "outputs": [
        {
          "components": [
            {
              "internalType": "string",
              "name": "name",
              "type": "string"
            },
            {
              "internalType": "string",
              "name": "imageURI",
              "type": "string"
            },
            {
              "internalType": "uint256",
              "name": "hp",
              "type": "uint256"
            },
            {
              "internalType": "uint256",
              "name": "maxHp",
              "type": "uint256"
            },
            {
              "internalType": "uint256",
              "name": "attackDamage",
              "type": "uint256"
            },
            {
              "internalType": "uint256",
              "name": "defence",
              "type": "uint256"
            }
          ],
          "internalType": "struct EpicGame.BigBoss",
          "name": "",
          "type": "tuple"
        }
      ],
      "stateMutability": "view",
      "type": "function"
    },
    {
      "inputs": [
        {
          "internalType": "address",
          "name": "owner",
          "type": "address"
        },
        {
          "internalType": "address",
          "name": "operator",
          "type": "address"
        }
      ],
      "name": "isApprovedForAll",
      "outputs": [
        {
          "internalType": "bool",
          "name": "",
          "type": "bool"
        }
      ],
      "stateMutability": "view",
      "type": "function"
    },
    {
      "inputs": [
        {
          "internalType": "uint256",
          "name": "_charIndex",
          "type": "uint256"
        }
      ],
      "name": "mintCharNFT",
      "outputs": [],
      "stateMutability": "nonpayable",
      "type": "function"
    },
    {
      "inputs": [],
      "name": "name",
      "outputs": [
        {
          "internalType": "string",
          "name": "",
          "type": "string"
        }
      ],
      "stateMutability": "view",
      "type": "function"
    },
    {
      "inputs": [
        {
          "internalType": "uint256",
          "name": "",
          "type": "uint256"
        }
      ],
      "name": "nftHolderAttributes",
      "outputs": [
        {
          "internalType": "uint256",
          "name": "charIndex",
          "type": "uint256"
        },
        {
          "internalType": "string",
          "name": "name",
          "type": "string"
        },
        {
          "internalType": "string",
          "name": "imageURI",
          "type": "string"
        },
        {
          "internalType": "uint256",
          "name": "hp",
          "type": "uint256"
        },
        {
          "internalType": "uint256",
          "name": "maxHp",
          "type": "uint256"
        },
        {
          "internalType": "uint256",
          "name": "attackDamage",
          "type": "uint256"
        },
        {
          "internalType": "uint256",
          "name": "defence",
          "type": "uint256"
        }
      ],
      "stateMutability": "view",
      "type": "function"
    },
    {
      "inputs": [
        {
          "internalType": "address",
          "name": "",
          "type": "address"
        }
      ],
      "name": "nftHolders",
      "outputs": [
        {
          "internalType": "uint256",
          "name": "",
          "type": "uint256"
        }
      ],
      "stateMutability": "view",
      "type": "function"
    },
    {
      "inputs": [
        {
          "internalType": "uint256",
          "name": "tokenId",
          "type": "uint256"
        }
      ],
      "name": "ownerOf",
      "outputs": [
        {
          "internalType": "address",
          "name": "",
          "type": "address"
        }
      ],
      "stateMutability": "view",
      "type": "function"
    },
    {
      "inputs": [
        {
          "internalType": "address",
          "name": "from",
          "type": "address"
        },
        {
          "internalType": "address",
          "name": "to",
          "type": "address"
        },
        {
          "internalType": "uint256",
          "name": "tokenId",
          "type": "uint256"
        }
      ],
      "name": "safeTransferFrom",
      "outputs": [],
      "stateMutability": "nonpayable",
      "type": "function"
    },
    {
      "inputs": [
        {
          "internalType": "address",
          "name": "from",
          "type": "address"
        },
        {
          "internalType": "address",
          "name": "to",
          "type": "address"
        },
        {
          "internalType": "uint256",
          "name": "tokenId",
          "type": "uint256"
        },
        {
          "internalType": "bytes",
          "name": "_data",
          "type": "bytes"
        }
      ],
      "name": "safeTransferFrom",
      "outputs": [],
      "stateMutability": "nonpayable",
      "type": "function"
    },
    {
      "inputs": [
        {
          "internalType": "address",
          "name": "operator",
          "type": "address"
        },
        {
          "internalType": "bool",
          "name": "approved",
          "type": "bool"
        }
      ],
      "name": "setApprovalForAll",
      "outputs": [],
      "stateMutability": "nonpayable",
      "type": "function"
    },
    {
      "inputs": [
        {
          "internalType": "bytes4",
          "name": "interfaceId",
          "type": "bytes4"
        }
      ],
      "name": "supportsInterface",
      "outputs": [
        {
          "internalType": "bool",
          "name": "",
          "type": "bool"
        }
      ],
      "stateMutability": "view",
      "type": "function"
    },
    {
      "inputs": [],
      "name": "symbol",
      "outputs": [
        {
          "internalType": "string",
          "name": "",
          "type": "string"
        }
      ],
      "stateMutability": "view",
      "type": "function"
    },
    {
      "inputs": [
        {
          "internalType": "uint256",
          "name": "_tokenId",
          "type": "uint256"
        }
      ],
      "name": "tokenURI",
      "outputs": [
        {
          "internalType": "string",
          "name": "",
          "type": "string"
        }
      ],
      "stateMutability": "view",
      "type": "function"
    },
    {
      "inputs": [
        {
          "internalType": "address",
          "name": "from",
          "type": "address"
        },
        {
          "internalType": "address",
          "name": "to",
          "type": "address"
        },
        {
          "internalType": "uint256",
          "name": "tokenId",
          "type": "uint256"
        }
      ],
      "name": "transferFrom",
      "outputs": [],
      "stateMutability": "nonpayable",
      "type": "function"
    }
  ],
  "bytecode": "0x60806040523480156200001157600080fd5b5060405162005d3438038062005d34833981810160405281019062000037919062000b75565b6040518060400160405280600981526020017f4e46544865726f657300000000000000000000000000000000000000000000008152506040518060400160405280600481526020017f4845524f000000000000000000000000000000000000000000000000000000008152508160009080519060200190620000bb92919062000908565b508060019080519060200190620000d492919062000908565b5050506040518060c0016040528085815260200184815260200183815260200161271081526020018281526020016064815250600660008201518160000190805190602001906200012792919062000908565b5060208201518160010190805190602001906200014692919062000908565b5060408201518160020155606082015181600301556080820151816004015560a08201518160050155905050620002d36040518060600160405280602c815260200162005d08602c913960066000018054620001a29062000f5d565b80601f0160208091040260200160405190810160405280929190818152602001828054620001d09062000f5d565b8015620002215780601f10620001f55761010080835404028352916020019162000221565b820191906000526020600020905b8154815290600101906020018083116200020357829003601f168201915b5050505050600660020154600660010180546200023e9062000f5d565b80601f01602080910402602001604051908101604052809291908181526020018280546200026c9062000f5d565b8015620002bd5780601f106200029157610100808354040283529160200191620002bd565b820191906000526020600020905b8154815290600101906020018083116200029f57829003601f168201915b50505050506200077160201b62001e491760201c565b60005b8a518110156200074957600d6040518060e001604052808381526020018d84815181106200032d577f4e487b7100000000000000000000000000000000000000000000000000000000600052603260045260246000fd5b602002602001015181526020018c848151811062000374577f4e487b7100000000000000000000000000000000000000000000000000000000600052603260045260246000fd5b602002602001015181526020018b8481518110620003bb577f4e487b7100000000000000000000000000000000000000000000000000000000600052603260045260246000fd5b602002602001015181526020018a848151811062000402577f4e487b7100000000000000000000000000000000000000000000000000000000600052603260045260246000fd5b6020026020010151815260200189848151811062000449577f4e487b7100000000000000000000000000000000000000000000000000000000600052603260045260246000fd5b6020026020010151815260200188848151811062000490577f4e487b7100000000000000000000000000000000000000000000000000000000600052603260045260246000fd5b60200260200101518152509080600181540180825580915050600190039060005260206000209060070201600090919091909150600082015181600001556020820151816001019080519060200190620004ec92919062000908565b5060408201518160020190805190602001906200050b92919062000908565b50606082015181600301556080820151816004015560a0820151816005015560c0820151816006015550506000600d828154811062000573577f4e487b7100000000000000000000000000000000000000000000000000000000600052603260045260246000fd5b90600052602060002090600702016040518060e001604052908160008201548152602001600182018054620005a89062000f5d565b80601f0160208091040260200160405190810160405280929190818152602001828054620005d69062000f5d565b8015620006275780601f10620005fb5761010080835404028352916020019162000627565b820191906000526020600020905b8154815290600101906020018083116200060957829003601f168201915b50505050508152602001600282018054620006429062000f5d565b80601f0160208091040260200160405190810160405280929190818152602001828054620006709062000f5d565b8015620006c15780601f106200069557610100808354040283529160200191620006c1565b820191906000526020600020905b815481529060010190602001808311620006a357829003601f168201915b505050505081526020016003820154815260200160048201548152602001600582015481526020016006820154815250509050620007326040518060600160405280602c815260200162005cdc602c9139826020015183606001518460c001516200081d60201b62001eeb1760201c565b508080620007409062000f93565b915050620002d6565b5062000761600c620008c960201b62001f8d1760201c565b5050505050505050505062001099565b62000817848484846040516024016200078e949392919062000d7f565b6040516020818303038152906040527f8d142cdd000000000000000000000000000000000000000000000000000000007bffffffffffffffffffffffffffffffffffffffffffffffffffffffff19166020820180517bffffffffffffffffffffffffffffffffffffffffffffffffffffffff8381831617835250505050620008df60201b60201c565b50505050565b620008c3848484846040516024016200083a949392919062000de1565b6040516020818303038152906040527fd5cf17d0000000000000000000000000000000000000000000000000000000007bffffffffffffffffffffffffffffffffffffffffffffffffffffffff19166020820180517bffffffffffffffffffffffffffffffffffffffffffffffffffffffff8381831617835250505050620008df60201b60201c565b50505050565b6001816000016000828254019250508190555050565b60008151905060006a636f6e736f6c652e6c6f679050602083016000808483855afa5050505050565b828054620009169062000f5d565b90600052602060002090601f0160209004810192826200093a576000855562000986565b82601f106200095557805160ff191683800117855562000986565b8280016001018555821562000986579182015b828111156200098557825182559160200191906001019062000968565b5b50905062000995919062000999565b5090565b5b80821115620009b45760008160009055506001016200099a565b5090565b6000620009cf620009c98462000e70565b62000e3c565b9050808382526020820190508260005b8581101562000a135781518501620009f8888262000b31565b845260208401935060208301925050600181019050620009df565b5050509392505050565b600062000a3462000a2e8462000e9f565b62000e3c565b9050808382526020820190508285602086028201111562000a5457600080fd5b60005b8581101562000a88578162000a6d888262000b5e565b84526020840193506020830192505060018101905062000a57565b5050509392505050565b600062000aa962000aa38462000ece565b62000e3c565b90508281526020810184848401111562000ac257600080fd5b62000acf84828562000f27565b509392505050565b600082601f83011262000ae957600080fd5b815162000afb848260208601620009b8565b91505092915050565b600082601f83011262000b1657600080fd5b815162000b2884826020860162000a1d565b91505092915050565b600082601f83011262000b4357600080fd5b815162000b5584826020860162000a92565b91505092915050565b60008151905062000b6f816200107f565b92915050565b6000806000806000806000806000806101408b8d03121562000b9657600080fd5b60008b015167ffffffffffffffff81111562000bb157600080fd5b62000bbf8d828e0162000ad7565b9a505060208b015167ffffffffffffffff81111562000bdd57600080fd5b62000beb8d828e0162000ad7565b99505060408b015167ffffffffffffffff81111562000c0957600080fd5b62000c178d828e0162000b04565b98505060608b015167ffffffffffffffff81111562000c3557600080fd5b62000c438d828e0162000b04565b97505060808b015167ffffffffffffffff81111562000c6157600080fd5b62000c6f8d828e0162000b04565b96505060a08b015167ffffffffffffffff81111562000c8d57600080fd5b62000c9b8d828e0162000b04565b95505060c08b015167ffffffffffffffff81111562000cb957600080fd5b62000cc78d828e0162000b31565b94505060e08b015167ffffffffffffffff81111562000ce557600080fd5b62000cf38d828e0162000b31565b93505061010062000d078d828e0162000b5e565b92505061012062000d1b8d828e0162000b5e565b9150509295989b9194979a5092959850565b600062000d3a8262000f01565b62000d46818562000f0c565b935062000d5881856020860162000f27565b62000d63816200106e565b840191505092915050565b62000d798162000f1d565b82525050565b6000608082019050818103600083015262000d9b818762000d2d565b9050818103602083015262000db1818662000d2d565b905062000dc2604083018562000d6e565b818103606083015262000dd6818462000d2d565b905095945050505050565b6000608082019050818103600083015262000dfd818762000d2d565b9050818103602083015262000e13818662000d2d565b905062000e24604083018562000d6e565b62000e33606083018462000d6e565b95945050505050565b6000604051905081810181811067ffffffffffffffff8211171562000e665762000e656200103f565b5b8060405250919050565b600067ffffffffffffffff82111562000e8e5762000e8d6200103f565b5b602082029050602081019050919050565b600067ffffffffffffffff82111562000ebd5762000ebc6200103f565b5b602082029050602081019050919050565b600067ffffffffffffffff82111562000eec5762000eeb6200103f565b5b601f19601f8301169050602081019050919050565b600081519050919050565b600082825260208201905092915050565b6000819050919050565b60005b8381101562000f4757808201518184015260208101905062000f2a565b8381111562000f57576000848401525b50505050565b6000600282049050600182168062000f7657607f821691505b6020821081141562000f8d5762000f8c62001010565b5b50919050565b600062000fa08262000f1d565b91507fffffffffffffffffffffffffffffffffffffffffffffffffffffffffffffffff82141562000fd65762000fd562000fe1565b5b600182019050919050565b7f4e487b7100000000000000000000000000000000000000000000000000000000600052601160045260246000fd5b7f4e487b7100000000000000000000000000000000000000000000000000000000600052602260045260246000fd5b7f4e487b7100000000000000000000000000000000000000000000000000000000600052604160045260246000fd5b6000601f19601f8301169050919050565b6200108a8162000f1d565b81146200109657600080fd5b50565b614c3380620010a96000396000f3fe608060405234801561001057600080fd5b50600436106101425760003560e01c806395d89b41116100b8578063b88d4fde1161007c578063b88d4fde14610394578063b953084e146103b0578063c87b56dd146103ce578063d1a06665146103fe578063d4f24c5b1461041a578063e985e9c51461042457610142565b806395d89b41146102e357806398da4c9514610301578063a22cb46514610337578063a963654514610353578063a9c326791461037157610142565b806323b872dd1161010a57806323b872dd146101ff57806342842e0e1461021b5780636352211e1461023757806370a08231146102675780637ba8b8d6146102975780637df124a1146102b357610142565b806301ffc9a7146101475780630665f9611461017757806306fdde0314610195578063081812fc146101b3578063095ea7b3146101e3575b600080fd5b610161600480360381019061015c919061333d565b610454565b60405161016e9190614154565b60405180910390f35b61017f610536565b60405161018c9190614540565b60405180910390f35b61019d61069c565b6040516101aa919061416f565b60405180910390f35b6101cd60048036038101906101c8919061338f565b61072e565b6040516101da9190614094565b60405180910390f35b6101fd60048036038101906101f89190613301565b6107b3565b005b610219600480360381019061021491906131fb565b6108cb565b005b610235600480360381019061023091906131fb565b61092b565b005b610251600480360381019061024c919061338f565b61094b565b60405161025e9190614094565b60405180910390f35b610281600480360381019061027c9190613196565b6109fd565b60405161028e9190614584565b60405180910390f35b6102b160048036038101906102ac919061338f565b610ab5565b005b6102cd60048036038101906102c89190613196565b610f04565b6040516102da9190614584565b60405180910390f35b6102eb610f1c565b6040516102f8919061416f565b60405180910390f35b61031b6004803603810190610316919061338f565b610fae565b60405161032e979695949392919061459f565b60405180910390f35b610351600480360381019061034c91906132c5565b611100565b005b61035b611116565b6040516103689190614562565b60405180910390f35b6103796112f8565b60405161038b96959493929190614283565b60405180910390f35b6103ae60048036038101906103a9919061324a565b611432565b005b6103b8611494565b6040516103c59190614132565b60405180910390f35b6103e860048036038101906103e3919061338f565b611649565b6040516103f5919061416f565b60405180910390f35b6104186004803603810190610413919061338f565b611882565b005b610422611a2a565b005b61043e600480360381019061043991906131bf565b611db5565b60405161044b9190614154565b60405180910390f35b60007f80ac58cd000000000000000000000000000000000000000000000000000000007bffffffffffffffffffffffffffffffffffffffffffffffffffffffff1916827bffffffffffffffffffffffffffffffffffffffffffffffffffffffff1916148061051f57507f5b5e139f000000000000000000000000000000000000000000000000000000007bffffffffffffffffffffffffffffffffffffffffffffffffffffffff1916827bffffffffffffffffffffffffffffffffffffffffffffffffffffffff1916145b8061052f575061052e82611fa3565b5b9050919050565b61053e612faf565b60066040518060c001604052908160008201805461055b906148fe565b80601f0160208091040260200160405190810160405280929190818152602001828054610587906148fe565b80156105d45780601f106105a9576101008083540402835291602001916105d4565b820191906000526020600020905b8154815290600101906020018083116105b757829003601f168201915b505050505081526020016001820180546105ed906148fe565b80601f0160208091040260200160405190810160405280929190818152602001828054610619906148fe565b80156106665780601f1061063b57610100808354040283529160200191610666565b820191906000526020600020905b81548152906001019060200180831161064957829003601f168201915b50505050508152602001600282015481526020016003820154815260200160048201548152602001600582015481525050905090565b6060600080546106ab906148fe565b80601f01602080910402602001604051908101604052809291908181526020018280546106d7906148fe565b80156107245780601f106106f957610100808354040283529160200191610724565b820191906000526020600020905b81548152906001019060200180831161070757829003601f168201915b5050505050905090565b60006107398261200d565b610778576040517f08c379a000000000000000000000000000000000000000000000000000000000815260040161076f906144c0565b60405180910390fd5b6004600083815260200190815260200160002060009054906101000a900473ffffffffffffffffffffffffffffffffffffffff169050919050565b60006107be8261094b565b90508073ffffffffffffffffffffffffffffffffffffffff168373ffffffffffffffffffffffffffffffffffffffff16141561082f576040517f08c379a000000000000000000000000000000000000000000000000000000000815260040161082690614500565b60405180910390fd5b8073ffffffffffffffffffffffffffffffffffffffff1661084e612079565b73ffffffffffffffffffffffffffffffffffffffff16148061087d575061087c81610877612079565b611db5565b5b6108bc576040517f08c379a00000000000000000000000000000000000000000000000000000000081526004016108b390614440565b60405180910390fd5b6108c68383612081565b505050565b6108dc6108d6612079565b8261213a565b61091b576040517f08c379a000000000000000000000000000000000000000000000000000000000815260040161091290614520565b60405180910390fd5b610926838383612218565b505050565b61094683838360405180602001604052806000815250611432565b505050565b6000806002600084815260200190815260200160002060009054906101000a900473ffffffffffffffffffffffffffffffffffffffff169050600073ffffffffffffffffffffffffffffffffffffffff168173ffffffffffffffffffffffffffffffffffffffff1614156109f4576040517f08c379a00000000000000000000000000000000000000000000000000000000081526004016109eb90614480565b60405180910390fd5b80915050919050565b60008073ffffffffffffffffffffffffffffffffffffffff168273ffffffffffffffffffffffffffffffffffffffff161415610a6e576040517f08c379a0000000000000000000000000000000000000000000000000000000008152600401610a6590614460565b60405180910390fd5b600360008373ffffffffffffffffffffffffffffffffffffffff1673ffffffffffffffffffffffffffffffffffffffff168152602001908152602001600020549050919050565b6000610ac1600c612474565b9050610acd3382612482565b6040518060e00160405280838152602001600d8481548110610b18577f4e487b7100000000000000000000000000000000000000000000000000000000600052603260045260246000fd5b90600052602060002090600702016001018054610b34906148fe565b80601f0160208091040260200160405190810160405280929190818152602001828054610b60906148fe565b8015610bad5780601f10610b8257610100808354040283529160200191610bad565b820191906000526020600020905b815481529060010190602001808311610b9057829003601f168201915b50505050508152602001600d8481548110610bf1577f4e487b7100000000000000000000000000000000000000000000000000000000600052603260045260246000fd5b90600052602060002090600702016002018054610c0d906148fe565b80601f0160208091040260200160405190810160405280929190818152602001828054610c39906148fe565b8015610c865780601f10610c5b57610100808354040283529160200191610c86565b820191906000526020600020905b815481529060010190602001808311610c6957829003601f168201915b50505050508152602001600d8481548110610cca577f4e487b7100000000000000000000000000000000000000000000000000000000600052603260045260246000fd5b9060005260206000209060070201600301548152602001600d8481548110610d1b577f4e487b7100000000000000000000000000000000000000000000000000000000600052603260045260246000fd5b9060005260206000209060070201600401548152602001600d8481548110610d6c577f4e487b7100000000000000000000000000000000000000000000000000000000600052603260045260246000fd5b9060005260206000209060070201600501548152602001600d8481548110610dbd577f4e487b7100000000000000000000000000000000000000000000000000000000600052603260045260246000fd5b906000526020600020906007020160060154815250600e6000838152602001908152602001600020600082015181600001556020820151816001019080519060200190610e0b929190612fe5565b506040820151816002019080519060200190610e28929190612fe5565b50606082015181600301556080820151816004015560a0820151816005015560c08201518160060155905050610e77604051806060016040528060308152602001614b616030913982846124a0565b80600f60003373ffffffffffffffffffffffffffffffffffffffff1673ffffffffffffffffffffffffffffffffffffffff16815260200190815260200160002081905550610ec5600c611f8d565b7f6bc8f3373247c8ae1b280a4fb17ce3419f25f2c6aa1f1676ded5563da138c9b6338284604051610ef8939291906140fb565b60405180910390a15050565b600f6020528060005260406000206000915090505481565b606060018054610f2b906148fe565b80601f0160208091040260200160405190810160405280929190818152602001828054610f57906148fe565b8015610fa45780601f10610f7957610100808354040283529160200191610fa4565b820191906000526020600020905b815481529060010190602001808311610f8757829003601f168201915b5050505050905090565b600e602052806000526040600020600091509050806000015490806001018054610fd7906148fe565b80601f0160208091040260200160405190810160405280929190818152602001828054611003906148fe565b80156110505780601f1061102557610100808354040283529160200191611050565b820191906000526020600020905b81548152906001019060200180831161103357829003601f168201915b505050505090806002018054611065906148fe565b80601f0160208091040260200160405190810160405280929190818152602001828054611091906148fe565b80156110de5780601f106110b3576101008083540402835291602001916110de565b820191906000526020600020905b8154815290600101906020018083116110c157829003601f168201915b5050505050908060030154908060040154908060050154908060060154905087565b61111261110b612079565b838361253f565b5050565b61111e61306b565b6000600f60003373ffffffffffffffffffffffffffffffffffffffff1673ffffffffffffffffffffffffffffffffffffffff16815260200190815260200160002054905060008111156112e757600e60008281526020019081526020016000206040518060e0016040529081600082015481526020016001820180546111a3906148fe565b80601f01602080910402602001604051908101604052809291908181526020018280546111cf906148fe565b801561121c5780601f106111f15761010080835404028352916020019161121c565b820191906000526020600020905b8154815290600101906020018083116111ff57829003601f168201915b50505050508152602001600282018054611235906148fe565b80601f0160208091040260200160405190810160405280929190818152602001828054611261906148fe565b80156112ae5780601f10611283576101008083540402835291602001916112ae565b820191906000526020600020905b81548152906001019060200180831161129157829003601f168201915b505050505081526020016003820154815260200160048201548152602001600582015481526020016006820154815250509150506112f5565b6112ef61306b565b80925050505b90565b6006806000018054611309906148fe565b80601f0160208091040260200160405190810160405280929190818152602001828054611335906148fe565b80156113825780601f1061135757610100808354040283529160200191611382565b820191906000526020600020905b81548152906001019060200180831161136557829003601f168201915b505050505090806001018054611397906148fe565b80601f01602080910402602001604051908101604052809291908181526020018280546113c3906148fe565b80156114105780601f106113e557610100808354040283529160200191611410565b820191906000526020600020905b8154815290600101906020018083116113f357829003601f168201915b5050505050908060020154908060030154908060040154908060050154905086565b61144361143d612079565b8361213a565b611482576040517f08c379a000000000000000000000000000000000000000000000000000000000815260040161147990614520565b60405180910390fd5b61148e848484846126ac565b50505050565b6060600d805480602002602001604051908101604052809291908181526020016000905b8282101561164057838290600052602060002090600702016040518060e0016040529081600082015481526020016001820180546114f5906148fe565b80601f0160208091040260200160405190810160405280929190818152602001828054611521906148fe565b801561156e5780601f106115435761010080835404028352916020019161156e565b820191906000526020600020905b81548152906001019060200180831161155157829003601f168201915b50505050508152602001600282018054611587906148fe565b80601f01602080910402602001604051908101604052809291908181526020018280546115b3906148fe565b80156116005780601f106115d557610100808354040283529160200191611600565b820191906000526020600020905b8154815290600101906020018083116115e357829003601f168201915b50505050508152602001600382015481526020016004820154815260200160058201548152602001600682015481525050815260200190600101906114b8565b50505050905090565b60606000600e60008481526020019081526020016000206040518060e001604052908160008201548152602001600182018054611685906148fe565b80601f01602080910402602001604051908101604052809291908181526020018280546116b1906148fe565b80156116fe5780601f106116d3576101008083540402835291602001916116fe565b820191906000526020600020905b8154815290600101906020018083116116e157829003601f168201915b50505050508152602001600282018054611717906148fe565b80601f0160208091040260200160405190810160405280929190818152602001828054611743906148fe565b80156117905780601f1061176557610100808354040283529160200191611790565b820191906000526020600020905b81548152906001019060200180831161177357829003601f168201915b50505050508152602001600382015481526020016004820154815260200160058201548152602001600682015481525050905060006117d28260600151612708565b905060006117e38360800151612708565b905060006117f48460a00151612708565b905060006118058560c00151612708565b9050600061184d866020015161181a8a612708565b8860400151888888886040516020016118399796959493929190613fb5565b6040516020818303038152906040526128b5565b90506000816040516020016118629190614072565b604051602081830303815290604052905080975050505050505050919050565b61012c600d82815481106118bf577f4e487b7100000000000000000000000000000000000000000000000000000000600052603260045260246000fd5b906000526020600020906007020160030160008282546118df9190614733565b92505081905550611a27604051806060016040528060318152602001614bcd60319139600d838154811061193c577f4e487b7100000000000000000000000000000000000000000000000000000000600052603260045260246000fd5b90600052602060002090600702016001018054611958906148fe565b80601f0160208091040260200160405190810160405280929190818152602001828054611984906148fe565b80156119d15780601f106119a6576101008083540402835291602001916119d1565b820191906000526020600020905b8154815290600101906020018083116119b457829003601f168201915b5050505050600d8481548110611a10577f4e487b7100000000000000000000000000000000000000000000000000000000600052603260045260246000fd5b906000526020600020906007020160030154612a73565b50565b6000600f60003373ffffffffffffffffffffffffffffffffffffffff1673ffffffffffffffffffffffffffffffffffffffff1681526020019081526020016000205490506000600e60008381526020019081526020016000209050611b3d6040518060600160405280603c8152602001614b91603c9139826001018054611ab0906148fe565b80601f0160208091040260200160405190810160405280929190818152602001828054611adc906148fe565b8015611b295780601f10611afe57610100808354040283529160200191611b29565b820191906000526020600020905b815481529060010190602001808311611b0c57829003601f168201915b505050505083600301548460050154611eeb565b611c156040518060400160405280601b81526020017f426f73732025732068617320257320485020616e64202573204144000000000081525060066000018054611b86906148fe565b80601f0160208091040260200160405190810160405280929190818152602001828054611bb2906148fe565b8015611bff5780601f10611bd457610100808354040283529160200191611bff565b820191906000526020600020905b815481529060010190602001808311611be257829003601f168201915b5050505050600660020154600660040154611eeb565b6000816003015411611c5c576040517f08c379a0000000000000000000000000000000000000000000000000000000008152600401611c5390614360565b60405180910390fd5b600060066002015411611ca4576040517f08c379a0000000000000000000000000000000000000000000000000000000008152600401611c9b90614380565b60405180910390fd5b80600501546006600201541015611cc5576000600660020181905550611ce4565b8060050154600660020154611cda9190614814565b6006600201819055505b60066004015481600301541015611d045760008160030181905550611d22565b6006600401548160030154611d199190614814565b81600301819055505b611d49604051806060016040528060258152602001614ad460259139600660020154612b12565b611d6f604051806060016040528060288152602001614b39602891398260030154612b12565b7f838ab28464562786a6c4ab2311964b82fa60bd9b14aa7e856af1f3f18d41a4146006600201548260030154604051611da992919061461c565b60405180910390a15050565b6000600560008473ffffffffffffffffffffffffffffffffffffffff1673ffffffffffffffffffffffffffffffffffffffff16815260200190815260200160002060008373ffffffffffffffffffffffffffffffffffffffff1673ffffffffffffffffffffffffffffffffffffffff16815260200190815260200160002060009054906101000a900460ff16905092915050565b611ee584848484604051602401611e6394939291906141d6565b6040516020818303038152906040527f8d142cdd000000000000000000000000000000000000000000000000000000007bffffffffffffffffffffffffffffffffffffffffffffffffffffffff19166020820180517bffffffffffffffffffffffffffffffffffffffffffffffffffffffff8381831617835250505050612bae565b50505050565b611f8784848484604051602401611f059493929190614230565b6040516020818303038152906040527fd5cf17d0000000000000000000000000000000000000000000000000000000007bffffffffffffffffffffffffffffffffffffffffffffffffffffffff19166020820180517bffffffffffffffffffffffffffffffffffffffffffffffffffffffff8381831617835250505050612bae565b50505050565b6001816000016000828254019250508190555050565b60007f01ffc9a7000000000000000000000000000000000000000000000000000000007bffffffffffffffffffffffffffffffffffffffffffffffffffffffff1916827bffffffffffffffffffffffffffffffffffffffffffffffffffffffff1916149050919050565b60008073ffffffffffffffffffffffffffffffffffffffff166002600084815260200190815260200160002060009054906101000a900473ffffffffffffffffffffffffffffffffffffffff1673ffffffffffffffffffffffffffffffffffffffff1614159050919050565b600033905090565b816004600083815260200190815260200160002060006101000a81548173ffffffffffffffffffffffffffffffffffffffff021916908373ffffffffffffffffffffffffffffffffffffffff160217905550808273ffffffffffffffffffffffffffffffffffffffff166120f48361094b565b73ffffffffffffffffffffffffffffffffffffffff167f8c5be1e5ebec7d5bd14f71427d1e84f3dd0314c0f7b2291e5b200ac8c7c3b92560405160405180910390a45050565b60006121458261200d565b612184576040517f08c379a000000000000000000000000000000000000000000000000000000000815260040161217b90614420565b60405180910390fd5b600061218f8361094b565b90508073ffffffffffffffffffffffffffffffffffffffff168473ffffffffffffffffffffffffffffffffffffffff1614806121fe57508373ffffffffffffffffffffffffffffffffffffffff166121e68461072e565b73ffffffffffffffffffffffffffffffffffffffff16145b8061220f575061220e8185611db5565b5b91505092915050565b8273ffffffffffffffffffffffffffffffffffffffff166122388261094b565b73ffffffffffffffffffffffffffffffffffffffff161461228e576040517f08c379a0000000000000000000000000000000000000000000000000000000008152600401612285906144e0565b60405180910390fd5b600073ffffffffffffffffffffffffffffffffffffffff168273ffffffffffffffffffffffffffffffffffffffff1614156122fe576040517f08c379a00000000000000000000000000000000000000000000000000000000081526004016122f5906143e0565b60405180910390fd5b612309838383612bd7565b612314600082612081565b6001600360008573ffffffffffffffffffffffffffffffffffffffff1673ffffffffffffffffffffffffffffffffffffffff16815260200190815260200160002060008282546123649190614814565b925050819055506001600360008473ffffffffffffffffffffffffffffffffffffffff1673ffffffffffffffffffffffffffffffffffffffff16815260200190815260200160002060008282546123bb9190614733565b92505081905550816002600083815260200190815260200160002060006101000a81548173ffffffffffffffffffffffffffffffffffffffff021916908373ffffffffffffffffffffffffffffffffffffffff160217905550808273ffffffffffffffffffffffffffffffffffffffff168473ffffffffffffffffffffffffffffffffffffffff167fddf252ad1be2c89b69c2b068fc378daa952ba7f163c4a11628f55a4df523b3ef60405160405180910390a4505050565b600081600001549050919050565b61249c828260405180602001604052806000815250612bdc565b5050565b61253a8383836040516024016124b893929190614322565b6040516020818303038152906040527f969cdd03000000000000000000000000000000000000000000000000000000007bffffffffffffffffffffffffffffffffffffffffffffffffffffffff19166020820180517bffffffffffffffffffffffffffffffffffffffffffffffffffffffff8381831617835250505050612bae565b505050565b8173ffffffffffffffffffffffffffffffffffffffff168373ffffffffffffffffffffffffffffffffffffffff1614156125ae576040517f08c379a00000000000000000000000000000000000000000000000000000000081526004016125a590614400565b60405180910390fd5b80600560008573ffffffffffffffffffffffffffffffffffffffff1673ffffffffffffffffffffffffffffffffffffffff16815260200190815260200160002060008473ffffffffffffffffffffffffffffffffffffffff1673ffffffffffffffffffffffffffffffffffffffff16815260200190815260200160002060006101000a81548160ff0219169083151502179055508173ffffffffffffffffffffffffffffffffffffffff168373ffffffffffffffffffffffffffffffffffffffff167f17307eab39ab6107e8899845ad3d59bd9653f200f220920489ca2b5937696c318360405161269f9190614154565b60405180910390a3505050565b6126b7848484612218565b6126c384848484612c37565b612702576040517f08c379a00000000000000000000000000000000000000000000000000000000081526004016126f9906143a0565b60405180910390fd5b50505050565b60606000821415612750576040518060400160405280600181526020017f300000000000000000000000000000000000000000000000000000000000000081525090506128b0565b600082905060005b6000821461278257808061276b90614930565b915050600a8261277b9190614789565b9150612758565b60008167ffffffffffffffff8111156127c4577f4e487b7100000000000000000000000000000000000000000000000000000000600052604160045260246000fd5b6040519080825280601f01601f1916602001820160405280156127f65781602001600182028036833780820191505090505b5090505b600085146128a95760018261280f9190614814565b9150600a8561281e9190614979565b603061282a9190614733565b60f81b818381518110612866577f4e487b7100000000000000000000000000000000000000000000000000000000600052603260045260246000fd5b60200101907effffffffffffffffffffffffffffffffffffffffffffffffffffffffffffff1916908160001a905350600a856128a29190614789565b94506127fa565b8093505050505b919050565b606060008251905060008114156128de5760405180602001604052806000815250915050612a6e565b600060036002836128ef9190614733565b6128f99190614789565b600461290591906147ba565b905060006020826129169190614733565b67ffffffffffffffff811115612955577f4e487b7100000000000000000000000000000000000000000000000000000000600052604160045260246000fd5b6040519080825280601f01601f1916602001820160405280156129875781602001600182028036833780820191505090505b5090506000604051806060016040528060408152602001614af9604091399050600181016020830160005b86811015612a2b5760038101905062ffffff818a015116603f8160121c168401518060081b905060ff603f83600c1c1686015116810190508060081b905060ff603f8360061c1686015116810190508060081b905060ff603f831686015116810190508060e01b905080845260048401935050506129b2565b506003860660018114612a455760028114612a5557612a60565b613d3d60f01b6002830352612a60565b603d60f81b60018303525b508484525050819450505050505b919050565b612b0d838383604051602401612a8b93929190614191565b6040516020818303038152906040527ff362ca59000000000000000000000000000000000000000000000000000000007bffffffffffffffffffffffffffffffffffffffffffffffffffffffff19166020820180517bffffffffffffffffffffffffffffffffffffffffffffffffffffffff8381831617835250505050612bae565b505050565b612baa8282604051602401612b289291906142f2565b6040516020818303038152906040527f9710a9d0000000000000000000000000000000000000000000000000000000007bffffffffffffffffffffffffffffffffffffffffffffffffffffffff19166020820180517bffffffffffffffffffffffffffffffffffffffffffffffffffffffff8381831617835250505050612bae565b5050565b60008151905060006a636f6e736f6c652e6c6f679050602083016000808483855afa5050505050565b505050565b612be68383612dce565b612bf36000848484612c37565b612c32576040517f08c379a0000000000000000000000000000000000000000000000000000000008152600401612c29906143a0565b60405180910390fd5b505050565b6000612c588473ffffffffffffffffffffffffffffffffffffffff16612f9c565b15612dc1578373ffffffffffffffffffffffffffffffffffffffff1663150b7a02612c81612079565b8786866040518563ffffffff1660e01b8152600401612ca394939291906140af565b602060405180830381600087803b158015612cbd57600080fd5b505af1925050508015612cee57506040513d601f19601f82011682018060405250810190612ceb9190613366565b60015b612d71573d8060008114612d1e576040519150601f19603f3d011682016040523d82523d6000602084013e612d23565b606091505b50600081511415612d69576040517f08c379a0000000000000000000000000000000000000000000000000000000008152600401612d60906143a0565b60405180910390fd5b805181602001fd5b63150b7a0260e01b7bffffffffffffffffffffffffffffffffffffffffffffffffffffffff1916817bffffffffffffffffffffffffffffffffffffffffffffffffffffffff191614915050612dc6565b600190505b949350505050565b600073ffffffffffffffffffffffffffffffffffffffff168273ffffffffffffffffffffffffffffffffffffffff161415612e3e576040517f08c379a0000000000000000000000000000000000000000000000000000000008152600401612e35906144a0565b60405180910390fd5b612e478161200d565b15612e87576040517f08c379a0000000000000000000000000000000000000000000000000000000008152600401612e7e906143c0565b60405180910390fd5b612e9360008383612bd7565b6001600360008473ffffffffffffffffffffffffffffffffffffffff1673ffffffffffffffffffffffffffffffffffffffff1681526020019081526020016000206000828254612ee39190614733565b92505081905550816002600083815260200190815260200160002060006101000a81548173ffffffffffffffffffffffffffffffffffffffff021916908373ffffffffffffffffffffffffffffffffffffffff160217905550808273ffffffffffffffffffffffffffffffffffffffff16600073ffffffffffffffffffffffffffffffffffffffff167fddf252ad1be2c89b69c2b068fc378daa952ba7f163c4a11628f55a4df523b3ef60405160405180910390a45050565b600080823b905060008111915050919050565b6040518060c001604052806060815260200160608152602001600081526020016000815260200160008152602001600081525090565b828054612ff1906148fe565b90600052602060002090601f016020900481019282613013576000855561305a565b82601f1061302c57805160ff191683800117855561305a565b8280016001018555821561305a579182015b8281111561305957825182559160200191906001019061303e565b5b50905061306791906130a8565b5090565b6040518060e00160405280600081526020016060815260200160608152602001600081526020016000815260200160008152602001600081525090565b5b808211156130c15760008160009055506001016130a9565b5090565b60006130d86130d384614676565b614645565b9050828152602081018484840111156130f057600080fd5b6130fb8482856148bc565b509392505050565b60008135905061311281614a77565b92915050565b60008135905061312781614a8e565b92915050565b60008135905061313c81614aa5565b92915050565b60008151905061315181614aa5565b92915050565b600082601f83011261316857600080fd5b81356131788482602086016130c5565b91505092915050565b60008135905061319081614abc565b92915050565b6000602082840312156131a857600080fd5b60006131b684828501613103565b91505092915050565b600080604083850312156131d257600080fd5b60006131e085828601613103565b92505060206131f185828601613103565b9150509250929050565b60008060006060848603121561321057600080fd5b600061321e86828701613103565b935050602061322f86828701613103565b925050604061324086828701613181565b9150509250925092565b6000806000806080858703121561326057600080fd5b600061326e87828801613103565b945050602061327f87828801613103565b935050604061329087828801613181565b925050606085013567ffffffffffffffff8111156132ad57600080fd5b6132b987828801613157565b91505092959194509250565b600080604083850312156132d857600080fd5b60006132e685828601613103565b92505060206132f785828601613118565b9150509250929050565b6000806040838503121561331457600080fd5b600061332285828601613103565b925050602061333385828601613181565b9150509250929050565b60006020828403121561334f57600080fd5b600061335d8482850161312d565b91505092915050565b60006020828403121561337857600080fd5b600061338684828501613142565b91505092915050565b6000602082840312156133a157600080fd5b60006133af84828501613181565b91505092915050565b60006133c48383613e51565b905092915050565b6133d581614848565b82525050565b60006133e6826146b6565b6133f081856146e4565b935083602082028501613402856146a6565b8060005b8581101561343e578484038952815161341f85826133b8565b945061342a836146d7565b925060208a01995050600181019050613406565b50829750879550505050505092915050565b6134598161485a565b82525050565b600061346a826146c1565b61347481856146f5565b93506134848185602086016148cb565b61348d81614a66565b840191505092915050565b60006134a3826146cc565b6134ad8185614706565b93506134bd8185602086016148cb565b6134c681614a66565b840191505092915050565b60006134dc826146cc565b6134e68185614717565b93506134f68185602086016148cb565b6134ff81614a66565b840191505092915050565b6000613515826146cc565b61351f8185614728565b935061352f8185602086016148cb565b80840191505092915050565b6000613548600b83614728565b91507f202d2d204e465420233a200000000000000000000000000000000000000000006000830152600b82019050919050565b6000613588602c83614717565b91507f4572726f723a20636861726163746572206d757374206861766520485020746f60008301527f2061747461636b20626f737300000000000000000000000000000000000000006020830152604082019050919050565b60006135ee602c83614717565b91507f4572726f723a20626f7373206d757374206861766520485020746f206174746160008301527f636b2063686172616374657200000000000000000000000000000000000000006020830152604082019050919050565b6000613654602c83614728565b91507f7d2c207b2274726169745f74797065223a202241747461636b2044616d61676560008301527f222c202276616c7565223a2000000000000000000000000000000000000000006020830152602c82019050919050565b60006136ba603283614717565b91507f4552433732313a207472616e7366657220746f206e6f6e20455243373231526560008301527f63656976657220696d706c656d656e74657200000000000000000000000000006020830152604082019050919050565b6000613720601c83614717565b91507f4552433732313a20746f6b656e20616c7265616479206d696e746564000000006000830152602082019050919050565b6000613760604983614728565b91507f222c20226465736372697074696f6e223a20225468697320697320616e204e4660008301527f542074686174206c6574732070656f706c652066756e20706c61792e222c202260208301527f696d616765223a202200000000000000000000000000000000000000000000006040830152604982019050919050565b60006137ec602483614717565b91507f4552433732313a207472616e7366657220746f20746865207a65726f2061646460008301527f72657373000000000000000000000000000000000000000000000000000000006020830152604082019050919050565b6000613852601983614717565b91507f4552433732313a20617070726f766520746f2063616c6c6572000000000000006000830152602082019050919050565b6000613892600f83614728565b91507f2c20226d61785f76616c7565223a2000000000000000000000000000000000006000830152600f82019050919050565b60006138d2602c83614717565b91507f4552433732313a206f70657261746f7220717565727920666f72206e6f6e657860008301527f697374656e7420746f6b656e00000000000000000000000000000000000000006020830152604082019050919050565b6000613938603883614717565b91507f4552433732313a20617070726f76652063616c6c6572206973206e6f74206f7760008301527f6e6572206e6f7220617070726f76656420666f7220616c6c00000000000000006020830152604082019050919050565b600061399e602a83614717565b91507f4552433732313a2062616c616e636520717565727920666f7220746865207a6560008301527f726f2061646472657373000000000000000000000000000000000000000000006020830152604082019050919050565b6000613a04602983614717565b91507f4552433732313a206f776e657220717565727920666f72206e6f6e657869737460008301527f656e7420746f6b656e00000000000000000000000000000000000000000000006020830152604082019050919050565b6000613a6a600483614728565b91507f7d205d7d000000000000000000000000000000000000000000000000000000006000830152600482019050919050565b6000613aaa602083614717565b91507f4552433732313a206d696e7420746f20746865207a65726f20616464726573736000830152602082019050919050565b6000613aea603c83614728565b91507f222c202261747472696275746573223a205b207b2274726169745f747970652260008301527f3a20224865616c746820506f696e7473222c202276616c7565223a20000000006020830152603c82019050919050565b6000613b50602c83614717565b91507f4552433732313a20617070726f76656420717565727920666f72206e6f6e657860008301527f697374656e7420746f6b656e00000000000000000000000000000000000000006020830152604082019050919050565b6000613bb6602983614717565b91507f4552433732313a207472616e73666572206f6620746f6b656e2074686174206960008301527f73206e6f74206f776e00000000000000000000000000000000000000000000006020830152604082019050919050565b6000613c1c600a83614728565b91507f7b226e616d65223a2022000000000000000000000000000000000000000000006000830152600a82019050919050565b6000613c5c602183614717565b91507f4552433732313a20617070726f76616c20746f2063757272656e74206f776e6560008301527f72000000000000000000000000000000000000000000000000000000000000006020830152604082019050919050565b6000613cc2602d83614728565b91507f7d2c207b2274726169745f74797065223a2022446566656e636520506f696e7460008301527f73222c202276616c7565223a20000000000000000000000000000000000000006020830152602d82019050919050565b6000613d28601d83614728565b91507f646174613a6170706c69636174696f6e2f6a736f6e3b6261736536342c0000006000830152601d82019050919050565b6000613d68603183614717565b91507f4552433732313a207472616e736665722063616c6c6572206973206e6f74206f60008301527f776e6572206e6f7220617070726f7665640000000000000000000000000000006020830152604082019050919050565b600060c0830160008301518482036000860152613dde8282613498565b91505060208301518482036020860152613df88282613498565b9150506040830151613e0d6040860182613f97565b506060830151613e206060860182613f97565b506080830151613e336080860182613f97565b5060a0830151613e4660a0860182613f97565b508091505092915050565b600060e083016000830151613e696000860182613f97565b5060208301518482036020860152613e818282613498565b91505060408301518482036040860152613e9b8282613498565b9150506060830151613eb06060860182613f97565b506080830151613ec36080860182613f97565b5060a0830151613ed660a0860182613f97565b5060c0830151613ee960c0860182613f97565b508091505092915050565b600060e083016000830151613f0c6000860182613f97565b5060208301518482036020860152613f248282613498565b91505060408301518482036040860152613f3e8282613498565b9150506060830151613f536060860182613f97565b506080830151613f666080860182613f97565b5060a0830151613f7960a0860182613f97565b5060c0830151613f8c60c0860182613f97565b508091505092915050565b613fa0816148b2565b82525050565b613faf816148b2565b82525050565b6000613fc082613c0f565b9150613fcc828a61350a565b9150613fd78261353b565b9150613fe3828961350a565b9150613fee82613753565b9150613ffa828861350a565b915061400582613add565b9150614011828761350a565b915061401c82613885565b9150614028828661350a565b915061403382613647565b915061403f828561350a565b915061404a82613cb5565b9150614056828461350a565b915061406182613a5d565b915081905098975050505050505050565b600061407d82613d1b565b9150614089828461350a565b915081905092915050565b60006020820190506140a960008301846133cc565b92915050565b60006080820190506140c460008301876133cc565b6140d160208301866133cc565b6140de6040830185613fa6565b81810360608301526140f0818461345f565b905095945050505050565b600060608201905061411060008301866133cc565b61411d6020830185613fa6565b61412a6040830184613fa6565b949350505050565b6000602082019050818103600083015261414c81846133db565b905092915050565b60006020820190506141696000830184613450565b92915050565b6000602082019050818103600083015261418981846134d1565b905092915050565b600060608201905081810360008301526141ab81866134d1565b905081810360208301526141bf81856134d1565b90506141ce6040830184613fa6565b949350505050565b600060808201905081810360008301526141f081876134d1565b9050818103602083015261420481866134d1565b90506142136040830185613fa6565b818103606083015261422581846134d1565b905095945050505050565b6000608082019050818103600083015261424a81876134d1565b9050818103602083015261425e81866134d1565b905061426d6040830185613fa6565b61427a6060830184613fa6565b95945050505050565b600060c082019050818103600083015261429d81896134d1565b905081810360208301526142b181886134d1565b90506142c06040830187613fa6565b6142cd6060830186613fa6565b6142da6080830185613fa6565b6142e760a0830184613fa6565b979650505050505050565b6000604082019050818103600083015261430c81856134d1565b905061431b6020830184613fa6565b9392505050565b6000606082019050818103600083015261433c81866134d1565b905061434b6020830185613fa6565b6143586040830184613fa6565b949350505050565b600060208201905081810360008301526143798161357b565b9050919050565b60006020820190508181036000830152614399816135e1565b9050919050565b600060208201905081810360008301526143b9816136ad565b9050919050565b600060208201905081810360008301526143d981613713565b9050919050565b600060208201905081810360008301526143f9816137df565b9050919050565b6000602082019050818103600083015261441981613845565b9050919050565b60006020820190508181036000830152614439816138c5565b9050919050565b600060208201905081810360008301526144598161392b565b9050919050565b6000602082019050818103600083015261447981613991565b9050919050565b60006020820190508181036000830152614499816139f7565b9050919050565b600060208201905081810360008301526144b981613a9d565b9050919050565b600060208201905081810360008301526144d981613b43565b9050919050565b600060208201905081810360008301526144f981613ba9565b9050919050565b6000602082019050818103600083015261451981613c4f565b9050919050565b6000602082019050818103600083015261453981613d5b565b9050919050565b6000602082019050818103600083015261455a8184613dc1565b905092915050565b6000602082019050818103600083015261457c8184613ef4565b905092915050565b60006020820190506145996000830184613fa6565b92915050565b600060e0820190506145b4600083018a613fa6565b81810360208301526145c681896134d1565b905081810360408301526145da81886134d1565b90506145e96060830187613fa6565b6145f66080830186613fa6565b61460360a0830185613fa6565b61461060c0830184613fa6565b98975050505050505050565b60006040820190506146316000830185613fa6565b61463e6020830184613fa6565b9392505050565b6000604051905081810181811067ffffffffffffffff8211171561466c5761466b614a37565b5b8060405250919050565b600067ffffffffffffffff82111561469157614690614a37565b5b601f19601f8301169050602081019050919050565b6000819050602082019050919050565b600081519050919050565b600081519050919050565b600081519050919050565b6000602082019050919050565b600082825260208201905092915050565b600082825260208201905092915050565b600082825260208201905092915050565b600082825260208201905092915050565b600081905092915050565b600061473e826148b2565b9150614749836148b2565b9250827fffffffffffffffffffffffffffffffffffffffffffffffffffffffffffffffff0382111561477e5761477d6149aa565b5b828201905092915050565b6000614794826148b2565b915061479f836148b2565b9250826147af576147ae6149d9565b5b828204905092915050565b60006147c5826148b2565b91506147d0836148b2565b9250817fffffffffffffffffffffffffffffffffffffffffffffffffffffffffffffffff0483118215151615614809576148086149aa565b5b828202905092915050565b600061481f826148b2565b915061482a836148b2565b92508282101561483d5761483c6149aa565b5b828203905092915050565b600061485382614892565b9050919050565b60008115159050919050565b60007fffffffff0000000000000000000000000000000000000000000000000000000082169050919050565b600073ffffffffffffffffffffffffffffffffffffffff82169050919050565b6000819050919050565b82818337600083830152505050565b60005b838110156148e95780820151818401526020810190506148ce565b838111156148f8576000848401525b50505050565b6000600282049050600182168061491657607f821691505b6020821081141561492a57614929614a08565b5b50919050565b600061493b826148b2565b91507fffffffffffffffffffffffffffffffffffffffffffffffffffffffffffffffff82141561496e5761496d6149aa565b5b600182019050919050565b6000614984826148b2565b915061498f836148b2565b92508261499f5761499e6149d9565b5b828206905092915050565b7f4e487b7100000000000000000000000000000000000000000000000000000000600052601160045260246000fd5b7f4e487b7100000000000000000000000000000000000000000000000000000000600052601260045260246000fd5b7f4e487b7100000000000000000000000000000000000000000000000000000000600052602260045260246000fd5b7f4e487b7100000000000000000000000000000000000000000000000000000000600052604160045260246000fd5b6000601f19601f8301169050919050565b614a8081614848565b8114614a8b57600080fd5b50565b614a978161485a565b8114614aa257600080fd5b50565b614aae81614866565b8114614ab957600080fd5b50565b614ac5816148b2565b8114614ad057600080fd5b5056fe506c617965722061747461636b656420626f73732e204e657720626f73732068703a2025734142434445464748494a4b4c4d4e4f505152535455565758595a6162636465666768696a6b6c6d6e6f707172737475767778797a303132333435363738392b2f426f73732061747461636b656420706c617965722e204e657720706c617965722068703a2025730a4d696e746564204e4654207769746820746f6b656e496420257320616e6420636861726163746572496e6465782025730a506c6179657220772f206368617261637465722025732061626f757420746f2061747461636b2e2048617320257320485020616e64202573204144446f6e617465207375636365737366756c6c7920646f6e653a206368617261637465722025732068617665202573204850a26469706673582212209dea19510bb708f38145a84f01add2f46b28e7ad7c80f3264083b4df2924415364736f6c63430008000033446f6e6520696e697469616c697a696e672025732077697468202d3e2048503a2025732c2044463a2025732e446f6e6520696e697469616c697a696e6720626f737320257320776974682048502025732c20696d67202573",
  "linkReferences": {},
  "deployedLinkReferences": {}
}